:020000040000FA
:06000000020B5202024552
:03002B00020814B4
:0300330002064280
:0300530002017433
:03006B0002061971
:100083000201D60105030101FFEE250000000086F1
:100093002500000000FF000000FF00010020FD001C
:1000A300020000AE170000000000000E1800000060
:1000B3000000009617000000000000000000000090
:1000C300000000000000000000000000000612FF16
:1000D300FF0600019D10000000016A1C701C000057
:1000E300761C7C1C000000000000000000000000E3
:1000F30000000000000010202020202020202020CD
:1001030020202020202020010104010001000555AA
:10011300800114810204010001000555800114814E
:100123000101010400DD10000000E8030000FFFFEF
:100133008511E803000064006400B801A0BB0D0052
:10014300A0BB0D0002020008000005020704010520
:100153001E02051E020A0A01080803B80B02803EAC
:100163000102FEFFE8030A050001FFFF020A140172
:10017300E0C0E074F11204C4A2AFE433F509D2AFD6
:1001830085A708AFA1EF5508FE74105E600612152F
:100193001A75A1EF74085E600812152075A1F78027
:1001A30024EFA2E092F0E508A2E082F050179061FC
:1001B30098E0F890053BE0C398A2D265D033500293
:1001C300E8F075A1FE751A00E509A2E092AF7F027F
:1001D300020523C0E074F21204C4A2AFE433FED2DA
:1001E300AF9061A4E0F8759B00E59158540860084E
:1001F3007591F71215688023E591585410600875BE
:1002030091EF12156E8014E591A2E092F0E8A2E05E
:1002130082F05007E0C2E0F01216C49061A3E0F848
:10022300E5E9585404600E12169A75E9FB90619340
:10023300E0A2E640F2751A00EEA2E092AF7F01025F
:100243000523C0E074F21204C4A2AFE433FED2AFBC
:100253009061A5E0F8E5BF585404600675BFFB1232
:1002630016DC80D1C3E498F8E499F91202A8802639
:10027300C3E49AFAE49BFBE920E7E91202A8E498B5
:10028300F8E499F922C3E498F8E499F91202A8E48E
:1002930098F8E499F9C3E49AFAE49BFB22EB20E78C
:1002A300CFE920E7E0B90010BB0008E88AF084F842
:1002B300AAF022E4FBC8FA22EB70227B10C833C8F1
:1002C300C933C9335007C39AC3DBF280069A50017E
:1002D3002ADBEAC833F4C8C933F4C9FA2275F00833
:1002E300E4C833C8C933C933C99AC99B5004C92A5E
:1002F300C93BD5F0ECFBC833F4C8E4C9FA220808BB
:1003030008EAC0E0EBC0E086F0E7A4FA180986F03B
:10031300E7A42AFA180986F0E7A42AFA180986F04E
:10032300E7A42AFA1986F0E7A4FBE5F02AFA1908EC
:1003330086F0E7A42BFBE5F03AFA190886F0E7A468
:100343002BFBE5F03AFA18180986F0E7A4C5F02B61
:10035300FBE43AFA1908E7C5F0C6A426F6E5F03B34
:10036300FBE43AFA1886F0E7A4F6E5F00826F6E48B
:100373003B08F6E43A08F6D0E0FBD0E0FA22E4CFFB
:10038300C0E0E4CEC0E0E4CDC0E0E4CCC0E075F072
:1003930020E626F608E633F608E633F608E633F6F3
:1003A300181818EC33FCED33FDEE33FEEF33FFC3C7
:1003B300EC9709ED9709EE9709EF97191919400F73
:1003C300FFEC97FC09ED97FD09EE97FE191906D589
:1003D300F0BFECF709EDF709EEF709EFF719191973
:1003E300D0E0FCD0E0FDD0E0FED0E0FF222518C530
:1003F30082C0E0E51934FFC583C0E0E518C39582E8
:1004030024F810AF0885831985821880088583191D
:10041300858218D2AFCEF0A3E520F0A37808E608D2
:10042300F0A3DEFAEFF0A3E58124FAF8E608F0A3DF
:10043300E608F0A3E608F0A30808E608F0A3E60838
:10044300F0A315811581D0E0FED0E0F81581158168
:100453001581E8C0E0EEC0E022120BCCB900030224
:1004630004AEE4900301782C79108002F0A3D8FC49
:10047300D9FA781A9000867A01BA00028007E493C9
:10048300A3F608DAF97A2C7B1290008778EE7901CB
:100493008015E493A3AD82AE838A828B83F0A3AAF3
:1004A30082AB838D828E83D8E9D9E77582377583D2
:1004B300BF74041208DD75829E75832174001208CF
:1004C300DDC0D02518C582C0E0E51934FFC583C05F
:1004D300E0E518C3958224F310AF0885831985825C
:1004E300188008858319858218D2AFC8F0A3E9F074
:1004F300A3EAF0A3EBF0A37908E709F0A3D8FAEC99
:10050300F0A3EDF0A3EEF0A3EFF0A3D0E0F0A3D0BF
:10051300E0F0A3D0E0F0A3E520F0A3E5F0F0A32200
:10052300851983851882E0C0E0A3E0F9A3E0FAA36C
:10053300E0FBA37808E0F608A3DFFAE0FCA3E0FD04
:10054300A3E0FEA3E0FFA3E0C0E0A3E0C0E0A3E0DC
:10055300F5D0A3E0F520A3E0A3F5F010AF08858361
:10056300198582188008858319858218D2AFD082B5
:10057300D083D0E0F8D0E0320475F0108E218F22C2
:10058300858226858325851882851983E0CEA3E09D
:10059300CF852682852583EBC9EAC8EDCBECCAC398
:1005A300E833C8E933C9EA33CAEB33CBC3EA9EF570
:1005B30024EB9FF523B35004AB23AA24EC33CCEDF7
:1005C30033CDD5F0DAAE21AF2222D083D082ECC076
:1005D300E0EDC0E0E493A3FCE493A3FDED4C600DD8
:1005E3001206ECEC24FFFCED34FFFD80EFE493A353
:1005F300FCE493A3FDED4C600D1207BFEC24FFFC5C
:10060300ED34FFFD80EFD0E0FDD0E0FCE493A3C028
:10061300E0E493C0E022C0E074F21204C4A2AFE4A9
:1006230033FED2AFE589A2E1500312145475890059
:10063300C2C5751A00EEA2E092AF7F01020523C086
:10064300E074F21204C4A2AFE433FED2AFE58BA28E
:10065300E05003121454758B00C2E880D5D083D0C8
:1006630082E9C0E0E493A3C386F0C5F095F0F908EE
:10067300E493A386F0C5F095F0700BE493A3C399BC
:100683004005E9048002A3E475F002A42582F58203
:10069300E5F03583F583D0E0F9E493A3C0E0E49378
:1006A300C0E022851983851882E0A3FEE0A3F5202C
:1006B3007808E0A3F608DFFAE0A3FFE0A3C0E0E0D8
:1006C300A3C0E0E0A3C0E0E0A3C0E0E0A3C0E0106B
:1006D300AF08858218858319800885821885831958
:1006E300D2AFD083D0820208E3C0E0C3E49396087C
:1006F3007401939618400FE493667008087401938D
:10070300661870007019A3A3C3E493960874019349
:100713009618A3A3400DD0E0D0E0D0E0020609A3D1
:10072300A3A3A3A3A3D0E022D083D082C5F0E493F4
:10073300A3C5F0C395F0F5F0E493A3C395F040058A
:10074300E5F0048001E475F002A42582F582E5F06A
:100753003583F583E493A3C0E0E493C0E0227404FB
:10076300800474028000CCC0E0EDC0E0E518C39CB7
:10077300CCAD1950011D10AF068C188D1980068C55
:10078300188D19D2AF12085FD0E0FDD0E0FC2274BF
:10079300028000CCC0E0EDC0E0E518C39CCCAD19ED
:1007A30050011D10AF068C188D1980068C188D19F9
:1007B300D2AF12083DD0E0FDD0E0FC22C0E0C0F093
:1007C30088F0E4936670080874019366187000A8B3
:1007D300F0A3A3700BD0F0D0E0D0E0D0E002060984
:1007E300A3A3D0F0D0E022D083D082CCC0E0E493A6
:1007F300A360061208801470FAE493A3600612093A
:10080300AF1470FAD0E0FCE493A3C0E0E493C0E03B
:1008130022C0E0C0D0E8C0E0E9C0E0A9A8D2AFC2DE
:10082300C7751A00E9A2E7E433F8E9A2E792AFD06B
:10083300E0F9D0E0F8D0D0D0E032CAC0E0E493A32E
:10084300C582CCC582C583CDC583F0A3C582CCC583
:1008530082C583CDC583DAE5D0E0CA22CAC0E0E011
:10086300A3C582CCC582C583CDC583F0A3C582CC85
:10087300C582C583CDC583DAE6D0E0CA22C0E0E4F1
:1008830093A3D39C5010E493A3C39C400AD0E0D01D
:10089300E0D0E0020807A3A3A3D0E0227009080870
:1008A30008226016181818C6C333C608C633C6080C
:1008B300C633C608C633C6D5E0EA22C008C3E096ED
:1008C300F50808A3E096420808A3E096420808A3A7
:1008D300E09645087001D3D00822C09FF59FE473CA
:1008E300D09F22D083D082C09FE493C0E074019351
:1008F300C0E0740293F59F227404800A7403800697
:10090300740280027401C0E0F404120931D0E012D1
:100913000B8F2200C0D0251810AF08F518500C0516
:10092300198008F51850020519D2AFD0D022251826
:10093300F58210AF08F518400C15198008F518401A
:10094300021519D2AF85198322BB0102E722C082A7
:10095300C08389828A83BB0003E08002E493D0834F
:10096300D082226016080808C6C313C618C613C669
:1009730018C613C618C613C6D5E0EA22C3E0C69646
:10098300F608A3E0C696F608A3E0C696F608A3E029
:10099300C696F6222518F8E43519F9222518FAE443
:1009A3003519FB222518FCE43519FD22C0E0E49338
:1009B300A36C7009D0E0D0E0D0E0020807A3A3D075
:1009C300E022251810AF08F518400C15198008F51A
:1009D3001840021519D2AF22E066701008A3E06632
:1009E300700A08A3E066700408A3E06622C3E096D9
:1009F30008A3E09608A3E09608A3E096A2D265D0E8
:100A03003322E76670100809E766700A0809E7668B
:100A130070040809E76622C3E096F008A3E096F0A5
:100A230008A3E096F008A3E096F022C3E697F60841
:100A330009E697F60809E697F60809E697F622C34A
:100A4300E4939608740193960874029396087403CA
:100A5300939622E627F60809E637F60809E637F6FD
:100A63000809E637F622E026F608A3E036F608A3DF
:100A7300E036F608A3E036F622700422600D18C6AD
:100A8300C333C608C633C6D5E0F41822E493F60888
:100A9300740193F608740293F608740393F622E63E
:100AA30057F60809E657F60809E657F60809E65720
:100AB300F622E056F608A3E056F608A3E056F60839
:100AC300A3E056F622E647F60809E647F60809E6E4
:100AD30047F60809E647F622E026F008A3E036F0D9
:100AE30008A3E036F008A3E036F022E056F008A3AE
:100AF300E056F008A3E056F008A3E056F022E4C362
:100B030096F608E496F608E496F608E496F622606C
:100B13000D08C6A2E713C618C613C6D5E0F322C64E
:100B2300F4C608C6F4C608C6F4C608C6F4C622C38B
:100B3300E7960809E7960809E7960809E79622C3A6
:100B4300E09608A3E09608A3E09608A3E096227532
:100B5300D00075813F7518017519030002045CE626
:100B6300F008A3E6F008A3E6F008A3E6F022600C81
:100B730008C6C313C618C613C6D5E0F422E0F608A8
:100B8300A3E0F608A3E0F608A3E0F622CAC0E0E675
:100B9300F0A308DAFAD0E0FA22E8F0A3E9F0A3EA36
:100BA300F0A3EBF022E0F8A3E0F9A3E0FAA3E0FB63
:100BB30022EAF0A3EBF0A3ECF0A3EDF022E0FAA31A
:100BC300E0FBA3E0FCA3E0FD22E5C754F84401F5F4
:100BD300C77901222518F582E43519F58322C2AFBE
:100BE30075D69F020000221208E64FCC021208E6D7
:100BF300EFCC021208E66BCD021208E61B290012A5
:100C030008E64D29001208E68129001208E6352B73
:100C1300001208E6092C001208E6682C001208E608
:100C23007E2D001208E6CA2D001208E66730001276
:100C330008E6DC32001208E62834001208E6C03465
:100C4300001208E6CC34001208E61535001208E657
:100C53004835001208E6D435001208E6E6360012DD
:100C630008E62738001208E62639001208E650394C
:100C7300001208E6BB39001208E6143A001208E62F
:100C8300873A001208E6BD3C001208E6433E001214
:100C930008E62E3F001208E67C40001208E6B44244
:100CA300001208E6AB45001208E6BA45001208E652
:100CB3004E46001208E6F946001208E63C470012C9
:100CC30008E68547001208E6D547001208E64248C1
:100CD300001208E6AE48001208E6CA48001208E609
:100CE300B249001208E6294C001208E65B4D0012D7
:100CF30008E62A4E001208E6AC4E001208E6F85247
:100D0300001208E62753001208E68253001208E691
:100D1300B553001208E61054001208E62C540012D2
:100D230008E68D54001208E6DD54001208E68C55DF
:100D3300001208E64F56001208E61757001208E69D
:100D43006359001208E6EF5A001208E6465C0012E7
:100D530008E6625D001208E6655D001208E6945D30
:100D6300001208E6835F001208E64C60001208E6F2
:100D73008D60001208E6E361001208E65962001272
:100D830008E68C62001208E6F062001208E61165BC
:100D9300001208E67065001208E64666001208E6CF
:100DA3005A66001208E66E66001208E69B66001299
:100DB30008E6CB66001208E66F68001208E66C6965
:100DC300001208E6BA69001208E6E169001208E6B3
:100DD300BC6A001208E6626B001208E6E86C0012B7
:100DE30008E62F6D001208E69C6D001208E6F16E0E
:100DF300001208E69A6F001208E6CE6F001208E6AA
:100E0300E66F001208E68970001208E60573001207
:100E130008E6AD74001208E6D174001208E6EF7418
:100E2300001208E6BB75001208E60979001208E60D
:100E33001C81011208E64E81011208E6CE850112DB
:100E430008E61D86011208E66386011208E6068796
:100E5300011208E66B87011208E6AF87011208E664
:100E63001689011208E6428A011208E63F8E011232
:100E730008E6BE8E011208E6E48F011208E64790E9
:100E8300011208E69391011208E62B94011208E679
:100E9300B894011208E6C294011208E6EA9401121A
:100EA30008E6B295011208E64796011208E6709625
:100EB300011208E69D96011208E6F298011208E66F
:100EC300BF99011208E6FE99011208E6809A011201
:100ED30008E62B9B011208E65D9B011208E6A89B1E
:100EE300011208E6E19B011208E6309C011208E6B4
:100EF3008C9C011208E60E9D011208E6739D0112F7
:100F030008E6EB9D011208E6949F011208E68CA007
:100F1300011208E6CDA1011208E621A5011208E697
:100F23007DA7011208E636A8011208E67EA8011281
:100F330008E65FAA011208E69AAA011208E6A3AA24
:100F4300011208E6ACAA011208E6B7AA011208E6E4
:100F5300D6AA011208E689AB011208E6E6AB011234
:100F630008E6F0AB011208E647AC011208E60EAD45
:100F7300011208E638AE011208E663AF011208E673
:100F830059B0011208E671B0011208E6A5B00112CA
:100F930008E6C3B0011208E60BB1011208E644B13A
:100FA300011208E6FBB1011208E6BCB2011208E621
:100FB3002FB3011208E6ABB3011208E647B40112DE
:100FC30008E66DB5011208E629B6011208E6C9B6AE
:100FD300011208E6B6B7011208E60EB8011208E6D8
:100FE300D4B8011208E6F7B8011208E60CBA0112E8
:100FF30008E657BA011208E6B3BA011208E61BBBAA
:10100300011208E63FBB011208E667BB011208E6BE
:10101300ACBB011208E6D0BB011208E654BC0112B6
:1010230008E63DBD011208E682BD011208E6ABBD2C
:10103300011208E649BE011208E6B4BE011208E631
:10104300E0BE011208E6C1BF011208E640E8031240
:1010530008E678E8031208E699E8031208E6DBE8F5
:10106300031208E63FE9031208E649E9031208E61A
:1010730059E9031208E690E9031208E639ED031271
:1010830008E601EF031208E6E5F0031208E687F12C
:10109300031208E611F2031208E6B1C1011208E6D1
:1010A30015C2011208E673C2011208E6BEC201129C
:1010B30008E6D9C2011208E600C3011208E61DC3FF
:1010C300011208E629C3011208E6BAC4011208E6B0
:1010D300D3C4011208E64FC5011208E662C5011226
:1010E30008E672C5011208E616C6011208E682C7B1
:1010F300011208E695C8011208E635C9011208E68F
:101103003FC9011208E6BEC9011208E6CFC90112A0
:1011130008E60ECA011208E63CCA011208E609CB2A
:10112300011208E660CB011208E699CB011208E62A
:10113300EFCB011208E60DCC011208E65BCC0112DD
:1011430008E626CD011208E674CD011208E6C1CDEA
:10115300011208E644CE011208E66ECE011208E63B
:10116300A4CE011208E6B3CE011208E612CF011293
:1011730008E68ACF011208E6CBCF011208E61BD09E
:10118300011208E646D0011208E660D0011208E613
:101193007AD0011208E64FD1011208E659D10112A3
:1011A30008E694D1011208E6A4D1011208E6ADD1F4
:1011B300011208E6FED1011208E612D2011208E676
:1011C30034D3011208E64BD3011208E660D30112AF
:1011D30008E6F3D3011208E667D4011208E60CD53A
:1011E300011208E617D5011208E677D6011208E6C0
:1011F30093D6011208E6DFD6011208E64DD7011295
:1012030008E67FD7011208E699D7011208E6DBD773
:10121300011208E62EDA011208E6C6DA011208E620
:101223003DDB011208E69ADD011208E6B2DD011288
:1012330008E6B5DD011208E6C1DD011208E6D5DDD9
:10124300011208E6DDDD011208E614DE011208E6EC
:1012530008DF011208E692DF011208E614E001122A
:1012630008E694E0011208E66BE1011208E68DE15D
:10127300011208E626E2011208E683E2011208E6FB
:1012830086E2011208E6B3E2011208E6C8E201129F
:1012930008E637E3011208E683E4011208E696E55F
:1012A300011208E621E6011208E634E7011208E616
:1012B300F9E7011208E62AE8011208E650E80112EC
:1012C30008E659E8011208E688E8011208E638E959
:1012D300011208E6E8E9011208E65BEA011208E6F2
:1012E300FEEA011208E671EB011208E6B0EB011207
:1012F30008E6F9EB011208E62EEC011208E6B6D275
:10130300031208E623D3031208E66FD3031208E699
:10131300C1D3031208E641D4031208E63ED60312F2
:1013230008E651D8031208E68ADB031208E6B9DBA4
:10133300031208E6D7DB031208E641DC031208E6D2
:1013430069DC031208E69CDC031208E6D1DC031215
:1013530008E633DD031208E602C6031208E67EC67A
:10136300031208E6ACC6031208E6F1C6031208E648
:1013730052C8031208E66EC8031208E6A4C8031293
:1013830008E61DC9031208E66BC9031208E6FBC988
:10139300031208E6D3CA031208E624CB031208E6B5
:1013A30089CB031208E6FCCB031208E640CC0312F8
:1013B30008E698CC031208E6BACC031208E64ACD35
:1013C300031208E6DBCD031208E613CE031208E688
:1013D3003CCE031208E67DCE031208E61ED00312AC
:1013E30008E600D1031208E6DCD1031208E615CCA7
:1013F300041208E626CC041208E6C4CC041208E65C
:10140300EA7F001208E6D97F001208E636CB041201
:1014130008E646CB041208E65BCB041208E60FCCC1
:10142300041208E633C9041208E6B7C9041208E631
:101433001DCA041208E66DFE011208E68FFE0112B2
:1014430008E6F5FE011208E614FF011208E65CFF48
:10145300011208E6B5FF011208E6F4FF011208E6DF
:10146300F7FF011208E6AAA4041208E6B8A40412BE
:1014730008E631A5041208E606A6041208E6D8A772
:10148300041208E63DA8041208E6A0A8041208E620
:10149300F87F001208E62ABD041208E662BD0412B2
:1014A30008E6B0BE041208E634BF041208E641871A
:1014B300041208E66D87041208E6038A041208E69C
:1014C300438A041208E67F8A041208E6938A041208
:1014D30008E6AC8A041208E69D8B041208E64F8CDA
:1014E300041208E6638C041208E6F0C2041208E64C
:1014F30014C3041208E62DC3041208E66BC30412D6
:1015030008E6A1C3041208E6D4C3041208E6DEC346
:10151300041208E64AC4041208E64DC4041208E69D
:1015230057C4041208E664C4041208E608B6041299
:1015330008E62BB6041208E676B6041208E694B65B
:10154300041208E6AFB6041208E615B7041208E65B
:1015530021B7041208E67EB7041208E6A2B7041204
:1015630008E668B8041208E675B8041208E686B8F7
:10157300041208E699CF041208E6B1CF041208E674
:10158300DDCF041208E6E791041208E64B93041238
:1015930008E65993041208E66D93041208E68A9349
:1015A300041208E69F93041208E6B293041208E6B5
:1015B3003494041208E69994041208E6219504125F
:1015C30008E69995041208E67296041208E68296D4
:1015D300041208E69196041208E600CF041208E606
:1015E30024CF041208E64CCF041208E674CF041289
:1015F30008E6F9BA041208E620BB041208E63EBB6B
:10160300041208E6C0C2021208E636B3041208E662
:101613004FB3041208E666B3041208E66FB304126C
:1016230008E68DB3041208E697B3041208E6A1B3E3
:10163300041208E6B4B3041208E63AB4041208E646
:10164300AFB4041208E6DDB4041208E62EB50412A2
:1016530008E67AB5041208E695B5041208E69FB5C4
:10166300041208E6B0B5041208E61ACC021208E622
:10167300A3D0041208E6EED0041208E6C0F2031267
:1016830008E6ECF2031208E60FF3031208E622F36E
:10169300031208E63DF3031208E6A1F3031208E67A
:1016A300CFF3031208E6DFF7031208E634F9031257
:1016B30008E666F9031208E6D1F9031208E638FBD7
:1016C300031208E660FB031208E675FB031208E643
:1016D30085FB031208E6C5FB031208E607FC0312A9
:1016E30008E617FC031208E68E7E001208E69E7ECB
:1016F300001208E6C27E001208E6EB7E001208E63E
:10170300157F001208E6397F001208E6507F0012A9
:1017130008E67E7F001208E6A17F001208E6A0CD4E
:10172300041208E6E4CD041208E68EAC041208E6BF
:101733009EAC041208E6BCAD041208E6F0AD041238
:1017430008E612AE041208E63AAE041208E653AEF7
:10175300041208E68FAE041208E6F1AE041208E69E
:1017630036AF041208E67BAF041208E6A8AF0412F2
:1017730008E6E0AF041208E6B3C5041208E6D1C5D3
:10178300041208E633C6041208E6D1C6041208E6BA
:101793000BFF021208E61AC8041208E662C8041214
:1017A30008E66EC4041208E693C5041208E67EDD5B
:1017B300031208E66AE1031208E65FE3031208E690
:1017C30091E4031208E66BE5031208E602E703124D
:1017D30008E6CEE7031208E622E8031208E62EC164
:1017E300041208E64FC1041208E689C2041208E68F
:1017F300B3C2041208E68ED1041208E69ED1041285
:1018030008E6A8D1041208E6ECA9031208E6EFA93A
:10181300031208E61DAF031208E65BB0031208E6E5
:10182300D6B1031208E6BBB2031208E690B3031263
:1018330008E684B4031208E642B5031208E672B55B
:10184300031208E625B7031208E6F0C6041208E6F9
:1018530002C7041208E6E7C7041208E6EAC704123F
:1018630008E6DECC041208E614CD041208E630CDF7
:10187300041208E672CD041208E67ECD041208E6CF
:1018830088CD041208E60080041208E63A800412A8
:1018930008E6A380041208E6C280041208E6DB808F
:1018A300041208E67D81041208E68681041208E624
:1018B300D781041208E60082041208E60D8204129E
:1018C30008E67E82041208E60C83041208E65A83B3
:1018D300041208E69083041208E6F183041208E672
:1018E3001984041208E69084041208E6EC840412B6
:1018F30008E62F85041208E66C85041208E67E8547
:10190300041208E69085041208E6AF85041208E67F
:10191300B885041208E68B86041208E6D7860412FB
:1019230008E61587041208E6C296041208E608982A
:10193300041208E63198041208E64298041208E6F5
:10194300619A041208E6819A041208E6B4B80412F4
:1019530008E6EAB8041208E639B9041208E692BAAE
:10196300041208E6DDEA021208E60EEC021208E6AB
:101973004AEC021208E604EE021208E62EEE021208
:1019830008E6A7F0021208E6E7F0021208E67CF286
:10199300021208E61BF3021208E673F3021208E6CA
:1019A300F9F3021208E631F4021208E673F40212A4
:1019B30008E6E4F5021208E664F7021208E6A5F960
:1019C300021208E6D3F9021208E6FFF9021208E64A
:1019D30008FA021208E65EFA021208E6EEFA0212AA
:1019E30008E62CFE021208E6AEFE021208E652CE0C
:1019F300041208E668CE041208E672CE041208E662
:101A0300C8CE041208E6FAD0041208E6C39B0412F7
:101A130008E6D89B041208E6889C041208E6C89CD2
:101A2300041208E6E19C041208E6149D041208E679
:101A3300619D041208E6959D041208E6D79D0412E1
:101A430008E6D59F041208E63BA0041208E636CA4E
:101A5300041208E695CA041208E6D3CA041208E67B
:101A630014CB041208E60080021208E60C8002126E
:101A730008E66E80021208E67880021208E60B81FF
:101A8300021208E64781021208E60282021208E601
:101A93001582021208E67C82021208E60C83021207
:101AA30008E65083021208E6D083021208E688850E
:101AB300021208E65D87021208E6B988021208E6F8
:101AC300268A021208E6C88A021208E65F8F02120B
:101AD30008E65E90021208E6EB90021208E6109107
:101AE300021208E6AA91021208E6C891021208E659
:101AF300E591021208E65992021208E67592021263
:101B030008E6A292021208E62394021208E644941D
:101B1300021208E6C594021208E66B95021208E663
:101B2300B295021208E62296021208E6BC96021249
:101B330008E63497021208E69F97021208E63E98D9
:101B4300021208E6AB98021208E6E698021208E6CB
:101B53004999021208E6A09A021208E6339B021280
:101B630008E6EA9B021208E66E9D021208E6079E4B
:101B7300021208E6799E021208E676A0021208E62F
:101B830022A2021208E64FA2021208E631A40212B0
:101B930008E620A6021208E626A7021208E647FC7A
:101BA300031208E6B9FC031208E6C7FC031208E6B1
:101BB300D8FD031208E6C7CD021208E667CE02126B
:101BC30008E6E8CE021208E6E6CF021208E665D080
:101BD300021208E6AAD1021208E64AD2021208E665
:101BE300F9D3021208E605D5021208E622D502123D
:101BF30008E652D6021208E66ED7021208E618D893
:101C0300021208E65CDB021208E669DD021208E64E
:101C1300F1DD021208E64BDE021208E69EDE021236
:101C230008E613DF021208E69BDF021208E6D3DFA1
:101C3300021208E6B2E6021208E60CE9021208E60E
:101C4300E8E9021208E64AD1041208E627790012ED
:101C530008E6437A001208E6487B001208E64E7C49
:101C6300001208E64D7D001208E6917D001208E699
:101C7300CC7D001208E6E67D001208E6E97D00123D
:101C830008E60080031208E65B80031208E6E180A1
:101C9300031208E6E981031208E63182031208E61B
:101CA300A382031208E6F482031208E62F830312C9
:101CB30008E69E83031208E6B683031208E66286EB
:101CC300031208E6FA86031208E63187031208E6D0
:101CD3006987031208E6B489031208E6048A03122B
:101CE30008E6468A031208E6208B031208E6598B9E
:101CF300031208E6788B031208E6C38B031208E687
:101D0300E38B031208E68A8C031208E60F8D031295
:101D130008E61A8D031208E6658D031208E6C08DE6
:101D2300031208E6008E031208E6168F031208E674
:101D33008C91031208E6B892031208E6FE9203128E
:101D430008E6C693031208E60B94031208E60E9402
:101D5300031208E61894031208E61B94031208E61C
:101D63009F94031208E6D894031208E6059503121C
:101D730008E62C95031208E65095031208E6EB9546
:101D8300031208E6F795031208E60D96031208E618
:101D93002996031208E65896031208E6789603126A
:101DA30008E6BB96031208E6F296031208E6F197DB
:101DB300031208E62099031208E63F99031208E686
:101DC3005699031208E61ED0041208E62AD004121C
:101DD30008E666D0041208E6778C041208E6B58C90
:101DE300041208E64E8D041208E6598E041208E622
:101DF300A190041208E61E91041208E672990312D8
:101E030008E69599031208E67F9A031208E6D19A29
:101E1300031208E6339B031208E6859B031208E6C8
:101E2300CD9B031208E6369C031208E6BB9C031203
:101E330008E6379D031208E67D9D031208E682A19A
:101E4300031208E6E6A3031208E61FA4031208E63A
:101E5300D8A4031208E6BFA5031208E62DA70312B0
:101E630008E6B4A7031208E699EC011208E639ED77
:101E7300011208E6A5ED011208E6BFED011208E61E
:101E830053EE011208E69BEE011208E6CEEF0112B3
:101E930008E60DF0011208E684F0011208E6D5F019
:101EA300011208E639F1011208E67CF2011208E694
:101EB30093F3011208E615F4011208E6EDF5011299
:101EC30008E68FF6011208E639F7011208E69AF7D9
:101ED300011208E609F8011208E666F9011208E69C
:101EE30010FB011208E6A3FB011208E60DFC011228
:101EF30008E62FFD011208E613B8031208E67EB8C0
:101F0300031208E6C6B8031208E60AB9031208E684
:101F13005CB9031208E6B9B9031208E6F4B903126F
:101F230008E693BA031208E604BB031208E688BB6B
:101F3300031208E6FBBB031208E615BC031208E60E
:101F430026BC031208E680BC031208E6E5BD0312B3
:101F530008E604BE031208E64CBF031208E6CBBF33
:101F6300031208E60CC0031208E606C1031208E6D2
:101F730013C2031208E60BC3031208E619C30312C4
:101F830008E604C4031208E6A6C4031208E616C54D
:101F9300031208E62BC5031208E6CCC5031208E6B4
:101FA300B4A8041208E66FAA041208E62EAB0412C2
:101FB30008E683AB041208E609AC041208E634B061
:101FC300041208E64FB0041208E693B0041208E6C0
:101FD300B9B0041208E6E0B0041208E6F8B004123F
:101FE30008E69BB1041208E6B0B1041208E6D2B2C7
:101FF300041208E6DBB2041208E6E4B2041208E6AF
:10200300EDB2041208E648A0041208E63CA4041248
:1020130008E641A4041208E643A4041208E6BBBF81
:10202300041208E6C9D1041208E63FC2021208E608
:1020330001C2021208E6B8C1021208E66CC102121C
:1020430008E6FBC0021208E6DFC0021208E696C0EB
:10205300021208E624C0021208E600C0021208E6D3
:10206300DCBF021208E6D1BF021208E6A3BF0212C8
:1020730008E674BF021208E66ABF021208E661BFEF
:10208300021208E658BF021208E64EBF021208E623
:102093003EBF021208E62ABF021208E65FBB021225
:1020A30008E685B9021208E614B9021208E683B8F5
:1020B300021208E667B7021208E675CB021208E6B9
:1020C3007EB5021208E6C7CA021208E672CA0212F5
:1020D30008E62DCA021208E6FAC8021208E6D2C8B8
:1020E300021208E67DC8021208E675B5021208E678
:1020F30068B5021208E66BB4021208E646B402128F
:1021030008E6F2C5021208E656B3021208E6ECB27C
:10211300021208E653B2021208E6E1B1021208E61F
:102123002AC5021208E6D0B1021208E6F3B504127A
:1021330008E6ABB0021208E62FB0021208E687AF3A
:10214300021208E6E0AE021208E682AE021208E6C8
:1021530057AE021208E608AE021208E6CAAD021232
:1021630008E6A8AD021208E685AD021208E66CADDA
:10217300021208E624AD021208E66EAC021208E66B
:10218300E2AB021208E676AB021208E68BC4021237
:1021930008E61FAB021208E6B3BB0400000080FB95
:1021A300E4730000030020011981000000002001F6
:1021B3001B810000040042018E80000005004201E3
:1021C300498000000600420138800000070020011A
:1021D3001A810000100042039E1200001100200328
:1021E300AC10000012001003AF1203000000210323
:1021F300AD10060000001001AF10050B0000210117
:102203000000050B010021010000050B0001230163
:102213000000050B010123010000050B020123014E
:102223000000050B030123010000050B040121013C
:102233000000050B050121010000050B060121012A
:102243000000050B070121010000050B0801210116
:102253000000050B090121010000050B0A01210102
:102263000000050B0B0121010000050B0C012101EE
:102273000000050B0D0121010000050B0E012101DA
:102283000000050B0F0121010000050B10012101C6
:102293000000050B110121010000050B12012101B2
:1022A3000000050B130121010000050B140121019E
:1022B3000000050B150121010000050B160121018A
:1022C3000000050B170121010000050B1801210176
:1022D3000000050B190121010000050B1A01210162
:1022E3000000050B1B0121010000050B1C0120014F
:1022F3000000050B1D0128010000870001001413D5
:1023030035000400DA1225000200DE122600020066
:10231300E01227000200E21228000100EC1229005B
:102323000100ED1284000400EE1286000100F21297
:102333002A000100F3122B000100F4122C0001000B
:10234300F8122D00080005122E000100F9122F00CB
:102353000100FA1230000100FB1231000100FC12EF
:10236300320001000D12330001000E12340001008F
:10237300FD12360001000F1238000100FE12390071
:102383000100F71283000200121363000100201200
:1023930064000100F51265000100F6126D000100F2
:1023A300211271000800FD116600010011134300A2
:1023B300010002134400020003134500010005134A
:1023C30046000200061347000800181248000100E7
:1023D30008134B0001000913040001001513A100A9
:1023E30001001813370001001713880001001613AA
:1023F3003C00010010123D000100FF1249000200E1
:102403000A136700010022124D0002000C134E0054
:1024130001000E134F0002000F133E0001001712BC
:10242300510001001112520001000013530001007A
:10243300011354000100121200000000000000010B
:10244300363601010001020100010301000104010C
:10245300060605020000070100340801000F090405
:1024630001010D0100FF0E08000017020000190111
:1024730000FF1A0100011B0100FE1C0100081D02E0
:1024830000001F01000120010001210200002301BF
:10249300000F240200002601000127010008280282
:1024A30000FF2A0100072B0102402C0100002D012F
:1024B30000012E0100012F0100FF30010B1D310827
:1024C30000003A0100083B01000F3C0100013D01FF
:1024D30000FF3E04000042040000460400004A04DA
:1024E30000004E04000052040000560400005A0489
:1024F3000000000021010001002102000001236609
:10250300000101236700020123680003012369001E
:102513000401216A000501216B000601212C01073A
:1025230001212D010801212E010901212F010A0199
:102533002130010B012131010C0121C8000D0121C2
:10254300C9000E0121CA000F0121CB00100121CCCB
:1025530000110121CD00120121CE0013012132010E
:102563001401213301150121CF0016012134011774
:102573000121D000180121D100190121D2001A0133
:1025830021D30001037103010301030103010301CB
:1025930003220302030103100300030003000300EB
:1025A30003000300030003420300032403060300A4
:1025B3000300030403120325032303250323030456
:1025C3000304030003000300034403000300032385
:1025D30003000365032100350381030003050300A2
:1025E30003000300030003250323030300710030EA
:1025F30001600011007000310220035004800010BC
:102603000061000000140063007300720062004365
:102613000000001300060000000000040012000088
:102623000000000000000004000400370037003CF5
:1026330002440000000000000000006500000035B7
:10264300008100000005000000830000000101710B
:1026530001010101011101010131010101010180A8
:1026630001100161013B00140063017301720162F7
:102673000143010001130106013D0135000401126C
:1026830001000100010001000104010401330133D1
:10269300013C0144013201360000010001650100E3
:1026A300013500810100010501820183010001035D
:1026B3000271023001600211027002010202020281
:1026C300028002100261023A004100630273027247
:1026D30002620243020002130238000002000204F5
:1026E3000212020002000200020002040204023786
:1026F3000037003C02440200023900000200026578
:1027030002000235028102000205028202830200F6
:102713000236000100060000000F00000000000068
:102723000000000000000003FFFF00000403FFFFA0
:102733000000FFFF0FF4010005C4040320000100A3
:10274300000B000000000000000003010F00000068
:102753000000000000000000000000000000000076
:102763000000000000000000000000000000004A1C
:102773001B861B501B841A561B8C1B561B981B5CF9
:102783001B841A561B8C1B621B841A681B841A6ECB
:102793001B841A741B841A7A1B841A801B841A00E4
:1027A3000000000000000000000000000000000026
:1027B3000000000000000000000000000000000016
:1027C30000000000000000000000000A00000002FA
:1027D30000000004000000080000001000000020BA
:1027E3000000004000000080000000000100000025
:1027F30002000000040000000800000010000000B8
:10280300200000004000000100A41E02001A1E0365
:1028130000201E0400261E05002C1E0600381E1173
:1028230000501E1400561E15004A1EFFFF0000072D
:10283300ECFDFDFDECDCDCCCBCACAC9C9C8C7C7C72
:102843006C6C5C5C5C4C4C3C3C2C2C1C1C03EAF517
:10285300E5D5D5C5B5A59595858575756565555535
:102863004545353525251515050AA20E02720E05B7
:10287300840E07780E0C5A0E0D660EFF000000162C
:102883000F00000B150B020002220F3300000E0194
:10289300030507090B0D0F00020406080A0C0D5A65
:1028A3006967426565416C6C69616E636530393097
:1028B3003017181921301B1D1F3000034A49434E9E
:1028C300181A25050200393D3F373C3C362C442D70
:1028D300303016181920231A1C1E300C0E020B045C
:1028E3000B0A0708000F0001191618161618230300
:1028F30000020402010101010902E803000000BE15
:10290300040AE8030E00FF031E030C040409100469
:1029130008280C052B081E0AC082C0831213589086
:1029230003227414F0A3740CF0900324741AF0A31C
:10293300740CF09003267420F0A3740CF090032819
:102943007426F0A3740CF002604574F71203F0E9E7
:10295300FE900316E4F0EE900315F07C187D127AD6
:10296300177B03121A60901308E090031FF0900383
:102973002074FDF0A37411F0120C4A024E2574F07A
:102983001203F08A088B09EB54807003022AD99052
:102993000315E0F91218C28A0A8B0BAE0AAF0BEECD
:1029A3004F7003022AD012521E707EEE241F12555E
:1029B3006464137002A3E070708E828F83A3A3E01C
:1029C300F50EA3E0F50F900330125A4E750A007509
:1029D3000B00800D12381012621812195EAA0CAB8C
:1029E3000DEA4B60448A828B83E0650E7004A3E09A
:1029F300650F70288A828B83A3A3A3A312523CE59D
:102A03000A450B8A828B83A3A3A3A360C712483A08
:102A1300850A82850B83A3A3A3A380BB8A0A8B0B9E
:102A23008A828B83125A4A80B8EE242A125564F99B
:102A33001265D1900330123CA9A3A3A3A3A3A3A31C
:102A4300A3E0640270378A828B83125A4E80078C0C
:102A5300828D83123F0DEC4D60208C828D83E06A62
:102A63007003A3E06B70E88C828D83A3A3E069708D
:102A7300DE90130E124BB8F0804C120C628E828FD4
:102A830083E064017034EE2418122B2D120907120F
:102A93004633120761EE2412122B2D120907124638
:102AA300271209031236D8120765EE241712463B84
:102AB300121316740A120916800CE064027007EEF2
:102AC300FAEFFB120D82EEFAEFFB1218B0AA08E53B
:102AD300096480FB8051EA5402600C90122F740148
:102AE300F0EA6402FA8040EA54046009120C50E5EB
:102AF3000864048029EA54086029120C5C8B0BEAF1
:102B0300450B7016900332E4F0A3F0A3F0A3F07A20
:102B130008FB900315E0F9121A30E5086408FAABD4
:102B23000980047A007B00024077125228F50A7864
:102B33000A2274F41203F08A088B098A828B8312A7
:102B43005A6312452738F583E02409FA7B001218EB
:102B5300AA8A0A8B0BAE0AAF0BEE4F7003022BF956
:102B63008E828F837402F0A3E4126955A3A3A3A3F7
:102B7300E8F0A3E91265F5A3A3A3A3A3A3A3F0E538
:102B8300082403F8E43509125D061245273AF58354
:102B9300123CA2F0EE2409FAE43FFB8E828F83A35A
:102BA300A31261A3F5838882E0A2E58E828F83A3BB
:102BB300A3A3A3A3500474018001E4F0E508240354
:102BC300F888828983125A4EEA12451B3BF5831219
:102BD3002BFC1208FFEA241012623E8E828F8312AE
:102BE3005A4C1218867403120916EEFAEFFB90037F
:102BF30015E0F91218B6023510E0F508A3E0F5095F
:102C0300750A0078082274F21203F08A088B09EC23
:102C1300FAEDFB740E120BD7E0FC1213888A0C8BAF
:102C23000DAE0CAF0DEE4F6030AC08AD091213764C
:102C3300E96026AC08AD09EEFAEFFB12137CE970EC
:102C4300148E828F831247CEFAEFFB121370AA08F9
:102C5300AB091213A07900800279B480031209161C
:102C63007F060206A674EE1203F074F71209C58AF2
:102C73000A8B0BECFEEDFF750CB3750D00750E00A2
:102C83008002050E90290EE493F8E50EC3984003E5
:102C9300022D77AA0E7B001213C48A088B09EA451A
:102CA3000960DF8A828B83A3A3A3A3A3E0250DF589
:102CB3000DF8C3E50A98E50B940050C67C157D001A
:102CC3007900EEFAEFFB121892850882850983A337
:102CD300A3A3A3A3E0F8E50AC3950D2825E0F8E430
:102CE30033F9E50828F582E50939F583123A7812B4
:102CF3006218120F328A0A8B0BAC0AAD0BEEFAEF95
:102D0300FB121A60850882850983A3E06401700BB6
:102D13001246337401127498A3803DAC18AD198523
:102D23000882850983125A4C1213ACE9602D74088A
:102D3300120BD7E0C0E0124633D0E0F07408120B58
:102D4300D7E06403700CAC18AD19123C9A121A60E8
:102D5300800985188285198312620C85088285098A
:102D63008312404AA3A312692CC0E0124268D0E048
:102D7300F0750C00A90C7409026CC774F71203F008
:102D8300E9FE8A828B83A3A3A3A3A3A3E0540860D1
:102D9300338A828B83A3A3A3A3A3A3E0540260215A
:102DA3008A828B83A3A3A3A3A3A3A3A3A3E0640601
:102DB300600F74E96E600A74CD6E600574F06E7016
:102DC30003120C32024E2574E81203F074F8120950
:102DD300C57406120BD71252F2ECFEEDFF8917757C
:102DE30015001230401213948A0A8B0BEA450B70BC
:102DF30003022FFCEE2410123E2FA90A1220548A3C
:102E0300128B13EA45137003022FFCEE2403F50C17
:102E1300E43FF50DEE2406F508E43FF5097C008553
:102E2300088212457F12139A8A108B11850C8285B2
:102E33000D83E0851282851383A3A3A3125AE2852F
:102E43001282851383A3A3A3A3E8F0A3E91236E0B8
:102E5300851282851383A3A3A3A3A3A3A31252AFB3
:102E6300851282851383A3A3A3A3A3A3F0EE124524
:102E73001B3F1230511208FFEE1245273F126242E8
:102E8300851282851383A3125A461218867403127D
:102E930009167428120BD712483AE512124BAA35B9
:102EA30013126216742A120BD7E0C0E0E512124522
:102EB3001B3513F583D0E0F07514007423120BD780
:102EC300E0F5167424120BD7780C120B80022F83B3
:102ED300851082851183125A4C1213B2850882859C
:102EE3000983A3EAF0A3EB123062A3A312660D12C7
:102EF300305CA2E6500F850882850983A3A3A3A3B0
:102F0300A3E0D2E1F0E51570668508828509831296
:102F13004839900366E0687003A3E069705185083F
:102F230082850983A3A3A3123E3D75100078101276
:102F33000907780C1208FBE516F51078101209073B
:102F43007426120BD7120765900373120765790075
:102F53007410120BD71265ED120DB2740A12091612
:102F6300850882850983A3A3A3A3A3E04405F07482
:102F7300012514FC12304012139A8A108B11051488
:102F8300E5104511604EC3E514950AE4950B5044D2
:102F9300E51475F006A4F8A9F0E51228F8E513394D
:102FA300F9E8240FF508E439F509850882F583E487
:102FB3001278BEE064016003022ED3751501850803
:102FC3008285098374011230621254CFA3E8F0A3FF
:102FD300E9022EEAAA12AB1312204E781212090349
:102FE300AD167424120BD7E0FCA917EEFAEFFB120F
:102FF3000C2C7402120916803A8E828F83A3A3A32A
:10300300E0C0E07403120BD7D0E01236E0C0E074E6
:1030130004120BD7D0E0F0E50A450B7009740512D2
:103023000BD774B980077405120BD774101262534F
:10303300120DAC74081209167F100206A68E828F39
:1030430083125A528E828F83A3A3A3E0F922F583BE
:10305300125240750E00780C22A3126636E022123B
:1030630078C2A32274E91203F074F31209C58A0C1F
:103073008B0D89168C148D157424120BD712594A93
:10308300AA08FB122060E9F513AA08AB0912205A1B
:10309300E51370030232AD750E00800F8E828F83AD
:1030A300A3A3A3A3A3E0D2E3F0050E124272E0F8B8
:1030B300E50EC39840030232A4E51370030232A461
:1030C300E50E75F006A4F8A9F0E50828F8E5093936
:1030D300F9E8240FFEE439FF8E828F83A3A3A3A311
:1030E300A3E0A2E040C3750F00750A08750B00E565
:1030F300156003750F207C087D007900AA18AB19B1
:103103001218928E828F83E060379003B6E06401D9
:103113007017E50FD2E3F50F750B108E828F8312B4
:1031230032CF125C3174FF8028430F0C750A0C8E6A
:10313300828F83A31232C5A3A3A3A3126CBCA38063
:1031430010E5166009E50FD2E6F50F750A0A12328B
:10315300CFF07402120BD7E50FF0124525350DF5AC
:1031630083E0C0E07404120BD7D0E0F07405120BB7
:10317300D7126251120D88740C120BD7E060030250
:1031830032877408120BD7125AB08E828F83A3A38F
:10319300A3A3F07408120BD7125264E50AF0A3E557
:1031A3000BF0125214E51412305D60119003B6E077
:1031B300C0E07408120BD7125254D0E0F074081216
:1031C3000BD7124292A3A3A31232C012520B125274
:1031D300F2126D271232C0125202EAF0A3EB126808
:1031E30059C0E01251F8D0E012691DC0E074081212
:1031F3000BD7124D4AD0E0126506C0E07408120BDB
:10320300D7124D3ED0E0F07408120BD71232C5121C
:103213004D2D1234181232C0242CF582E439F58373
:103223001252F2E50C124B8A350DF583E0C0E01221
:103233004D25D0E0F07408120BD7125A4E850C823C
:10324300850D831232B72428F582E43B126216E51A
:103253000C12451B350DF583126CD77512007810CF
:103263001208FF124525350D126242EA1264833BB0
:10327300F583125A4E1218867403120916AA18AB54
:1032830019120D8E8E828F83A3A3A3A3A3E0D2E092
:10329300F0740C120BD7E0600302309F1513023059
:1032A300AC7900AA08AB09120C38740D1209167F09
:1032B3000F0206A6A3A3A3A312483EEA22125A585A
:1032C300E82212483E850C82850D8322A31232D454
:1032D300221261D8E8F0A3E92274EE1203F074E934
:1032E3001209C58A088B09890A8A828B83A3A3A33F
:1032F300A3A3A3A3A3E0F91220368A0C8B0DEA45FE
:103303000D70030233A7125916123F28E50A600312
:103313000233AC7C04850882850983A3A3A3A3A3FA
:10332300A3A3A3E0F9122030EE4F60788E828F833F
:10333300A3A3A31248397406120BD7E8F0A3E9122A
:10334300661CF8A3E0F97408120BD71252E5C0E02B
:103353007410120BD7D0E0123418124839740E12BD
:103363000BD71262187411120BD7E4125AD3C82464
:103373001FF582E438F583125713C413135403FC67
:1033830070027C048E828F83E0F9780C1209037437
:103393002059FD744059F9740212099F120C2C74C0
:1033A300021209167417026CC77C08850882850906
:1033B30083A3A3A3A3A3A3A3A3E0F91220308B0F9A
:1033C300EA450F700302332BEE4F60D8E50AF50B85
:1033D300780B120907850C82850D83A3A3A3A3A3EE
:1033E300A3A3E0F50B780B1209078A828B83A3A3AF
:1033F300A3E0FB8A82850F83123F108A82850F83A5
:10340300E0FA8E828F83A3A3E0F9121310740212E1
:10341300091602332FF0850C82850D83A3A3A3A382
:10342300A3A3A3A32274F71203F074FA1209C5E944
:10343300FE7C017D017F0080037D000F125559E062
:10344300F8EFC3985028EF75F006A4F885F008A9A3
:1034530008EA28F8EB39F9E82414125EFBA2E050DD
:10346300D8540C60D4E0A2E250D17C0080CD8A8293
:103473008B83A3A3A3A3A3A3E0703DEDA2E0400528
:1034830074016E70338A828B83A3A3A3A3A3A37453
:1034930001124BF2E0C0E07403120BD7D0E0124BE1
:1034A300EAE0C0E07404120BD7D0E0F07405120B0D
:1034B300D7EC126253120DAC7406024E22C082C0C6
:1034C300837901120C3802604574F41203F0EA4B5D
:1034D30090122F6022E4F08A088B09F50AF50B7825
:1034E300081208FB7A027B00900315E0F9121A24F4
:1034F3007404120916800F7401F07A027B009003A2
:1035030015E0F9121A30800574021209167F0402BD
:1035130006A6C082C083901276E075F005A4FCADC8
:10352300F079007AE27B071218927A00800A123649
:10353300B974FEF0A304F00A901276E0F8EAC39897
:1035430040EC026045C082C0837A007B0080037A2E
:10355300010B901276E0F8EBC3985056EB75F0052B
:10356300A4F8ACF0EC1236D07003A3E0F460E2747C
:10357300E228F8740739F9E82403F850010988822E
:103583008983E024FFF0A3E034FF125D5BF9E8498F
:1035930070BDEB75F005A4F8ECF974E228F8740734
:1035A30039F98882898374FEF0A304123920E4F088
:1035B300809FEAA2E050179080CC1207617A047BC7
:1035C30000900315E0F9121A24740412091602601C
:1035D3004574F71203F0EAFEEBFF901276E07003F6
:1035E3000236B0EE241112556470030236B08E8297
:1035F3008F83A3125A46120F92E96402600F8E82E0
:103603008F83A3A3A3A3A3E070030236B07A008041
:10361300271236D8123F111236B9E06C7003A3E0BB
:103623006D7014EE2412125564FC74E428F5827450
:1036330007125EFE6C607B0A901276E0F8EAC3988C
:1036430040CF7A0080010A901276E0F8EAC39850DE
:1036530061EA75F005A4F8ABF0EB1236D07003A362
:10366300E0F470E274E228F874073BF91236D812DA
:1036730064B3EAF0A3EB1236E08882898312391926
:10368300740C1252AF7A04FB900315E0F9121A3648
:10369300EA4B4C4D70179080CC1207617A047B0083
:1036A300900315E0F9121A24740412091679010221
:1036B3004E25790080F9EA75F005A4F8A9F01236D1
:1036C300C52274E228F582740739F58322F912368C
:1036D300C5E064FE22EE1265C93FF58322F0126A4B
:1036E300A5E02274E81203F074FC1209C5740212F7
:1036F3000BD7E4F0A3F0900330123F28851882859E
:103703001983E4F0A3F0751401900360E0A2E35081
:103713000302379C121A488A088B098C0A8D0B8A7C
:103723000C8B0D8C0E8D0F900332780C12097F12C7
:1037330038177810790C120B3250077A017B00028C
:10374300380B850C14850D15850E16850F17781407
:103753007910120381A814A91590130EE0C398E4FD
:10376300995003E08001E8F514123817780C7910AA
:10377300120381E4F512F51378087910120A2E90DA
:1037830003327808120B62801012381012564AFA6C
:10379300EFFB12195EAE08AF09EE4F60638E828FA6
:1037A30083A3A3A3E0F8E514C3985029EE2403F5FB
:1037B30082E43FF583A814E0C398F06021740212F9
:1037C3000BD71249A91252B4EEF0A3EF12650BFE08
:1037D300A3E0FF80C48E828F83A3A3A3E4F08E8231
:1037E3008F83125946851882851983125ACE8E8289
:1037F3008F83A3A3A3A360911261D0125D21808C58
:103803007402120BD7125A4E740402303812483E17
:103813009003302290130CE0F510A3E0F511E4F5CA
:1038230012F5132274F21203F08A0A8B0BE9FE7A63
:10383300007B0090033012594A900330125ACE6035
:103843001E0A850882850983A3A3A3A3125ACE6007
:103853000E0AEA70010B88088909E8450970E390AC
:10386300130F12483AC3EA98EB9940030239167AC8
:10387300067B001219588A0C8B0DA80CA90DE84978
:10388300700302391688828983E50AF0A3E50BF0F9
:10389300EE88828983A3A3F090130E125F55A312BF
:1038A3003919A3E4F0A3F09003301248A8600F8500
:1038B3000882850983A3A3A3A3126218801F900320
:1038C30030126218900360E0A2E34011121A48EA32
:1038D300F8EBF9ECFAEDFB900332120B9C900360CA
:1038E300E0A2E3502E7A087B00900315E0F9121A48
:1038F30036EA4B4C4D701C90130C1272FC78081274
:1039030008FB7A087B00900315E0F9121A2A740465
:10391300120916022C63A3A3123920A322125EE01C
:10392300A3A322C082C083E9901230F090032A74CB
:1039330080F0A3740CF090032C7492F0A3740CF039
:1039430090032E74A4F0A3740CF002604574F71274
:1039530003F0EAFEEBFF8908EE4F700312140090A8
:103963000336125ACE7008900336802212483A88E2
:10397300828983A3A3A3A3A3A3A3A3A31248A88871
:10398300828983A3A3A3A3A3A3A3A3A370DEEEF0BF
:10399300A3EF1239A7A3A3A3E4F0A31239A7E50861
:1039A300F0024E251239AB221239AF22F08E828FEC
:1039B30083A3A3A3A3A3A32274F71203F090033654
:1039C300800D8E828F83A3A3A3A3A3A3A3A3A31278
:1039D3003F28EE4F60348E828F83A3A3A3A3A3A3B8
:1039E300A3E06970DD8E828F83A3A3A3A3E06A7033
:1039F30003A3E06B70CC8E828F83A3A3A3A3A3A3A3
:103A0300E06C70BEEEFAEFFB80047A007B00024E9E
:103A13002574F71203F0900336123F2890033612F1
:103A230032BB687002EB69701EE0C82409F582E4BA
:103A330038F58312483A900336126218900336120F
:103A43003F288027123F1BEE4F60208E828F83A377
:103A5300A3A3A3A31232B7687002EB6970E68A824C
:103A63008B83A3A3A3123A7812621812195EEEFA9B
:103A7300EFFB024E25A3A3A3A3A3A3124286A3A3F2
:103A8300A3A3A32274F01203F074FA1209C58A08DF
:103A93008B098A828B83A3A3A3A3A3A3A3A3E0601D
:103AA300336401602F8A828B83125A4E120F92E97C
:103AB3007022850882850983A3A3A3A3A3A3A3A339
:103AC300E06403701474041209A7AA08AB09120D69
:103AD30022E970167902023C8385088285098312E4
:103AE300483A7404120BD7126218126A98243412DB
:103AF300618B1219588A0A8B0BAE0AAF0BEE4F700B
:103B030003023C817C347D00790012189274021206
:103B1300099F850882850983A3A3A3A3A3A3A3A3C2
:103B2300A3E0F91213527402120BD7E0C0E0123C67
:103B330092D0E0F0EE242EF50AE43FF50B74031265
:103B43000BD7E0850A82850B83F07901EEFAEFFB50
:103B5300120C6E85080C85090D750E00780C120881
:103B6300FF7C1E7D00123C9A1218867403120916FC
:103B7300EE24321240402434F8E43FF98A828B83E6
:103B8300126218E5082411F8E43509F9E8FCE9FDA7
:103B93008C828D83125270243012621212403812BA
:103BA30075B51208FF8C828D83123CA9125A4E12EE
:103BB300188674031209167404120BD71242821268
:103BC3006218900316123CA2A3A3A3F0900316E07D
:103BD30004F0121A488E828F831252A8242C1245A5
:103BE30054750D00850A82850B83E0780C120A7CDC
:103BF3008A828B83E50CF0123C88E50C1252B4E404
:103C0300F0E5082415126A9CA2E074015007120B18
:103C1300D774018004120BD7E4F0EE242912593D26
:103C2300AA18AB1912133AE924FE85088285098381
:103C3300F0EE2430F8E43FF9E8FCE9FD123CB11260
:103C430002A8E88E828F83A3A3A3A3A3A3A3A3F0B5
:103C5300123CB11202A88B09EA4509600F8E828FCC
:103C630083A3A3A3A3A3A3A3A3E004F0EE2420129E
:103C7300556444081245A01218EC790080027910AB
:103C83007406024074EE242BF582E43FF58322EEA2
:103C93001264833FF58322EE240BFAE43FFB2212E6
:103CA30065FDA3A3A322123F158A828B83228C82F4
:103CB3008D831254D3E0FA7B002274F41203F0EAEA
:103CC300FEEBFF121A481252EE901302E0F8EE24B4
:103CD3002D125564C3984003023E1D1245607013B4
:103CE300EE242D12556404124065E0C0E0123C88B6
:103CF300D0E0F0EE242A125564FC7900800109EE2D
:103D0300242E125564F8E9C39850267508017509E5
:103D130000E97808120A7C124560550860E0E92C36
:103D2300FC750801750900E97808120A7CE045086A
:103D3300F0EE2429123E2FEE2430F582E43FF58382
:103D4300EC8AF0A4F8ABF0E42BF9E098F8A3E0993F
:103D5300F9C3E89AE99400EE40342429125564F833
:103D6300124560602F123C92123E3DA3E4F0EC70CA
:103D73004AEE242012556444201252E9C0E0125541
:103D830082D0E0F0EE2432123E2FA3E08052123CA8
:103D93008974FFF0900356E0FA901305123E34AB9A
:103DA300F075F064A4FAADF075F064EBA42DFB8E0E
:103DB300828F83A3A3EAF0A3EB80B2EE24201255F3
:103DC3006454DF12557DECF0FAEE2429F582E43FCA
:103DD300F583123E34FAABF0EE1251F23F12457600
:103DE300FB126901EAF0A3EB126625C0E0EE24257D
:103DF300F582E43FF583D0E0125280E81252AF908F
:103E03000338125ACE600BECF91274CD1221A3E9D8
:103E13007017123C9A120CF8800F7BE9124056126D
:103E2300130AEEFAEFFB120C7A023510125228FA3B
:103E330022E0F508EA8508F0A4221265FDA3F0222A
:103E430074F41203F0900336123F28121A488A0AB8
:103E53008B0B78FF79FF8020E0C39AFCA3E09BFDE6
:103E6300C3EC98ED99500E8E828F83A3A3E0C39A7F
:103E7300F8A3E09BF9123F1BEE4F605C8E828F83A9
:103E8300125A4EE50AC39AFAE50B9BFB8E828F8387
:103E9300123F0FC3EA9CEB9D8E828F83A3A340B88E
:103EA300A3A3A3A3E06402701AEE240B124563607C
:103EB3000912453B125A4E1218B0EEFAEFFB120CE0
:103EC3007A8007EEFAEFFB120C867A017B009012E0
:103ED30030E0F91218EC802974FF68700374FF69ED
:103EE300601F88088909E4F50AF50B78081208FBB6
:103EF3007A017B00901230E0F9121A24740412093B
:103F030016023510A3A3A3A3A3A3A3A3A3A3123FA2
:103F13001522E0FCA3E0FD228E828F83A3A3A3A33B
:103F2300A3A3A3A3A3E0FEA3E0FF2274F01203F074
:103F33008A088B09ECFAEDFB890A7C01126A98F96D
:103F4300120C748A0C8B0DAE0CAF0DEE4F70030286
:103F53004036E50A600302403612403812404E688C
:103F63006003024036124038E0FAEE242E12556404
:103F7300F8EA28FAE43400FB8E828F83A3A3A3A379
:103F8300A3A3A3A3E0F8EA98EB9400C365D033405E
:103F93001CE5082414126A9CF470127B001240562C
:103FA30012130AEEFAEFFB120C7A024036E50824EC
:103FB30014126A9CF47041EE242B124040242EF814
:103FC300E43FF9E8FCE9FD7508FF7509008C828D73
:103FD30083E07808120A7C8A828B83E508124065A5
:103FE300E508F08C828D8312404E28F0EE242DF5E7
:103FF30082E43FF583E4801BE5082414F8E43509E3
:10400300F9E0C0E012406AD0E0125D57C0E0123C14
:1040130088D0E0F0121A488E828F831252A8123C85
:104023009312404AA31252AF7A01FB901230E0F987
:104033001218EC803FE508241312427A22F8E43F79
:10404300F9E8FAE9FBEE221265FD22E0F8EE125ED2
:10405300E6E022EE2422125228FAEE241412522809
:10406300F922F012406A22EE242CF582E43FF58314
:10407300221209167F080206A674EC1203F074FEDE
:104083001209C58A0A8B0B8C0E8D0F89108A828BBD
:1040930083A3A3E0F912132E8A088B09AE08AF0994
:1040A300EE4F70077A007B0002425E7A127B0012A9
:1040B30019588A088B09EA4509700302425A7C128F
:1040C3007D007900121892AA18AB19850A82850B14
:1040D30083A3A3E0F9121352E508240FF50CE4358A
:1040E30009F50D7401120BD7E0850C82850D83F061
:1040F3007902AA08AB09120C6E850E82850F831212
:1041030042921242A0124514126604F07512FF7512
:104113001300850C82850D83E07812120A7C126DE0
:1041230027E512124D561274CBE0C0E0124272D052
:10413300E0F0124531F50CE508240D126D2BE50C6A
:10414300F0E50A124543850CF0A4A9F02427FAE40C
:1041530039FB1218AA8A0C8B0DAE0CAF0DE50812B1
:104163006819EEF0A3EFF0EE4F700302424D8E821A
:104173008F83741A1252AF8E828F83A3A3F0A3127C
:1041830042A6124282126218AC0EAD0F12690B12D4
:10419300134C850A82850B83A3A3A3E0C0E01257C7
:1041A30005D0E0F0900373125270241012429A1259
:1041B300525E350B12526E126235E8F0A3E91242D9
:1041C300A6A3A3A3A31252702412126212850A8219
:1041D300850B83A3A3E0C0E0124268D0E0F0E50AB8
:1041E300124BAA12454FE0C0E01265BCD0E0F07458
:1041F30016120BD7126833C0E0126A86D0E012663B
:1042030017C0E012681FD0E012683CC0E0126829B2
:10421300D0E0125275E510F07418120BD7120BA8E8
:10422300EE241AF582E43FF583120B9CEE2427F863
:10423300E43FF9EE242212429A12618312454FE0C1
:10424300C0E0126913D0E0F0800DAA08AB09120C8C
:104253007A750800750900AA08AB097402120916D9
:104263007F0C0206A6EE2414F582E43FF5832212A6
:10427300427622E508240BF582E43509F583221200
:104283004286221269B58E828F83A3A3A3A322122F
:1042930054D3A3A3A3A322F582E43FF5831252DFF1
:1042A300E50A22F0850A82850B83A3A3A3A3A3A314
:1042B3002274ED1203F08A0A8B0B8C108D11891274
:1042C300750900EA124543F508900338125ACE6087
:1042D3000EA9081274CD1221A3E9600302450F7CD5
:1042E30002851082851183125A4EE50A124514E0A5
:1042F300F9120C748A0C8B0DAE0CAF0DEE4F70548B
:10430300850A82850B83A3E0A2E0400302450F7474
:1043130015120BD71207617417120BD7120765A971
:1043230012AC10AD11AA0AAB0B120C987406120949
:10433300168A0C8B0DAE0CAF0DEE4F700302450FBA
:104343008E828F83A3A3A3A3A3A3A3A3E5081245EC
:10435300A01218ECA8088E828F83A3A3A3A3A3A300
:10436300A3A3E024FFFAE434FFFBEA684B70037570
:104373000901EE240B12456370030244C4850A82CB
:10438300850B83A3E0A2E0500375080012458DE579
:10439300089AE49BC365D033401CE0F8EE240E1268
:1043A300556428F0750CFF750D00E8780C120A7C33
:1043B300126077E50CF0E50A12451B350B123051FC
:1043C3001208FFE50A124527350B126242EE240D4F
:1043D300125564F50CE508850CF0A4FAABF0124510
:1043E3003B125A662422F582E438124576FB1218F2
:1043F300867403120916750C01124568780C120AAB
:104403007C125561450CF0E509A2E05063EE240CE3
:1044130012455412456804780C120A7C8A828B83F5
:10442300E0450C12529385080C850CF0A4F8A9F012
:10443300124531FCE82CFCE439FD12453B125A6667
:104443002420F582E438F583ECF0A3ED1252C0F496
:10445300701EEE240BF50CE43FF50DEE1245273FDD
:1044630012457F1218B6850C82850D8374FF805028
:10447300121A481252EE900356E0FA901305E0F533
:104483000CEA850CF0A4FAABF0F8EBF9901302E018
:10449300F50CE8850CF0A4F8ACF0850CF0E9A42C3D
:1044A300F9EA28F8EB39F9E875F064A4F8AAF0758D
:1044B300F064E9A42AF98E828F83A3A3E8F0A3E929
:1044C300F0A80812458DEA24FF1AEB34FFFBEA68D3
:1044D3007001EB600EEE240C1245636006E509A241
:1044E300E05029E50A124548ECF0125561C0E0E5B9
:1044F3000A2414F582E412454FD0E0F0AC0AAD0B68
:10450300851082851183125A4E120CE67F0B020628
:10451300A6124B8A12454F2212451F22240EF58202
:10452300E422E50C12452B222410F582E422E50A4D
:1045330012452B12454FE022EE12452B3FF5832205
:10454300124548E022124B8412454F22350BF58366
:1045530022F8E43FF9E8FAE9FB750CFF22EE242B7D
:10456300125228F422750D00125225F5F0E5088445
:10457300E5F022F583E02AFAA3E03B22F583125A01
:1045830058850C82850D83E0F922EE240E12522801
:10459300FC125225FAEC2AFAE43400FB22F07A01E9
:1045A3007B00901230E0F922C082C083901230E089
:1045B300F91218B602604574F41203F08A088B09E5
:1045C300EB5480703BEAA2E05053120C8CE5086474
:1045D30001FAAB09804B8E828F83E06401701A125B
:1045E3004633120761124627120903EE24121246BC
:1045F3003B120C9E7406120916EEFAEFFB1218B06A
:10460300901230E0F91218C28A0A8B0BAE0AAF0B74
:10461300EE4F70C2AA08E5096480FB80047A007B30
:1046230000023510EE240FF50AE43FF50B780A2259
:10463300EE124B843FF58322125228F9EE2402FC3A
:10464300E43FFDEE2419FAE43FFB2274F11203F078
:10465300890A8A088B098A828B83125A4E120CB6F6
:104663008B0DEA450D600579B80246F6120CD4E9C4
:10467300F8902911E493F9E8C399400479B280735F
:104683007A157B001219588A0C8B0DAE0CAF0DEE08
:104693004F70047910805C8E828F83E4F0A31266DE
:1046A30031A3E50A12684C1208FF7C127D00EE2448
:1046B30003FAE43FFB121886740312091690033AB7
:1046C300125ACE90033A7006EEF0A3EF801FE0FA81
:1046D300A3E08003E8FAE9FB8A828B83125ACE7047
:1046E300F3EEF8EFF98A828B83E8F0A3E9F0120C7A
:1046F300DA7900025C3CC082C08390033A80048C68
:10470300828D83123F11EC4D60288C828D83A3A38D
:10471300E069600574FF6970E68C828D83A3A3A3AF
:10472300E06A7003A3E06B70D6EC2403FAE43DFB6C
:1047330080047A007B0002604574F71203F0E9FD00
:1047430074FE6D70047C0180027C0090033A800942
:104753006D70027C0188828983125ACE601F888221
:104763008983A3A3A3E06A7003A3E06B70E7ECA2C1
:10477300E088828983A3A3E050D6F9800279FE0200
:104783004E2574F61203F0E9FF7E0090033AE0FC35
:10479300A3E0802D8C828D83A3A3E06F701E8C8297
:1047A3008D83A31247CE25E0F8E433F9EA28F58296
:1047B300EB39F583E508F0A3E509F00E125956FC31
:1047C300E9FDEC4D70CEEEF9024C24A3A312594E31
:1047D300EE2274F71203F0E9FE90033A12483A7C92
:1047E300007D00800BE8FCE9FD8882898312483A4A
:1047F300E849603D88828983A3A3E06E70E78882DD
:104803008983A3A3A3E06A7003A3E06B70D7EC4D85
:10481300888289837008125A4E90033A8003124E9D
:104823001A1261AAFAE9FB12195E120CDA790180F5
:10483300027900024E25A312483E221269B5227462
:10484300F51203F0890A90033A125A4E750800755F
:10485300090080151254CFE8F0A3E91252C0FEA359
:10486300E0FF12195EEEFAEFFBEA4B602B8A828BB4
:1048730083A3A3E0650A7012E50845098A828B8346
:1048830070D212483A90033A80CD8A088B098A8203
:104893008B83E0FAA3E080D0120CDA8003120916AE
:1048A3007F030206A6125A58EA4B22C082C08379BC
:1048B3000090033A800109125A4E8A828B83E58263
:1048C300458370F202604574F51203F074EB12092C
:1048D300C5851882851983E4F0A3F090033AE0FEBE
:1048E300A3E0807E8E828F83A3A3E0C0E0740212D4
:1048F3000BD7D0E0125C31A982AA8389088A097593
:104903000A0078081208FF7C127D007406120BD788
:10491300AA82AB8312188674031209167402120951
:10492300978808890978081209037508137509001F
:1049330078081209037404120BD712595A75F0132D
:10494300A4F8AAF075F013E912499A1219DC740459
:104953001209168518828519831249A91269AAE8D2
:10496300FEE9FFEE4F60030248E7A818A91988087B
:104973008909780812090375080275090078081275
:1049830009037C007D007A427B001219DC74041257
:10499300091674150248A0A42AF9E82402FCE43994
:1049A300FD7A427B0022E02401F0A3E0340022746C
:1049B300F61203F08C828D83A3A3124BE0F0EA245A
:1049C30017F582E43BF583E0C0E0124BB0D0E0F092
:1049D300124B9012483A124B9A124BE0A3F0A3F0F9
:1049E300EA241FF582E43BF583123F28EC12525E62
:1049F3003DF583EEF0A3EFF0EA1260713BF583120D
:104A03004BC1A3A3A3A3A3A3EEF0A3EF125D57FE91
:104A13008C828D83124C0A74035EFEC3940340039D
:104A2300024B77EE600574026E70798C828D83E0A1
:104A3300540CFE740C6E7003024AE4E0A2E4400DD1
:104A430088828983E08C828D83A3124C1274086E52
:104A53006003024AE4124BA27401F08A828B83A39F
:104A6300A3A3A3A3125C2B70148C828D83E0440C4C
:104A7300124BEAA3A3124BC1EEF0A3EFF08C828D8D
:104A830083E0A2E4401E124BCF124BFB50010912EC
:104A93004BCFA3A3124BFB50010988828983124B8E
:104AA300B8124C0A88828983E0C0E0EC124B8A3D3D
:104AB300F583D0E0124C0A8C828D83E0A2E7507814
:104AC30088828983E0FE8C828D83124C1274FC5E93
:104AD300700C8C828D83A3E054036403701B024B20
:104AE30077124BA2E4F0740C6E6003024A5E124B21
:104AF300CF124BFD50870980848C828D83A3E054B1
:104B030003603888828983E0C0E0EC124B843DF572
:104B130083D0E0124C138C828D83E05403640270C3
:104B23001A88828983E0C0E0EC2414F582E43DF521
:104B330083D0E0124C138003A3E4F0EC12451B3D39
:104B4300126216EC2410FEE43DFF124B90E0F508D0
:104B53008E828F83E0C3982508F508F0EA241712A4
:104B630061C6C39508C0E0124B9AD0E0125D57C3EB
:104B73009508500A124B9AE4F0124BB0E4F0024C41
:104B8300242413F582E4222411F582E422EA241D6D
:104B9300F582E43BF58322EC1260713DF58322EC50
:104BA300124BAA3DF58322240CF582E422EC124534
:104BB3002B3DF58322E08C828D83A3A3A322E0FE09
:104BC300A3E0FF8C828D83A3A3A3A322888289837E
:104BD300E0F508A3E0FFE5088C828D8322E4F08CE6
:104BE300828D83A3A3A322124BF2A3A3A3A322F038
:104BF3008A828B83A3A3A322A3A3A3A3A3A3F0A328
:104C0300EFF0E82402F822124C1AA882A98322A307
:104C1300124C1A08A98322125EE0A322740212091D
:104C2300167F020206A674F41203F074F31209C588
:104C33008A0A8B0BECFEEDFF8E828F83E0540CF51A
:104C430008E0A2E75006E508D2E7F508E508D2E157
:104C5300F508125C2B7006E508D2E4F508E0A2E53E
:104C63005006E508D2E5F5087C087D007900AA180E
:104C7300AB191218927402120BD7E508124D56C0E5
:104C8300E07403120BD7D0E01252B4E50AF0A3E5A7
:104C93000BF07405120BD7126251120D88740C12AB
:104CA3000BD7E070787408120BD7125A661261831F
:104CB3003812663CC0E07408120BD7124D4AD0E09C
:104CC300126506C0E07408120BD7124D3ED0E0F017
:104CD3007408120BD7126249124D2D1252E9125267
:104CE3009B2411125564C0E0124D25D0E0F0EE2450
:104CF30014125564C0E07408120BD7125A66243597
:104D0300F582E438F583D0E012528BC0E0740812C8
:104D13000BD7125248D0E0126253120D8E740D025B
:104D2300350DE81251F239F58322125A52E8242A3A
:104D3300F582E439F583EAF0A3EB221264FC24271D
:104D4300F582E438F583221264FC2426F582E438E4
:104D5300F58322126631E02274F71203F07E008A93
:104D6300828B83A3A3A3A3A3A3A3A3A3E06404604D
:104D730003024E07125AE7E06003024E07124E0B7E
:104D83003B125ACC607E88828983E054037075E8B5
:104D9300240C125EFBFA8C828D83A3A3E0FBA3E0B9
:104DA300CB124B8A3BF583E06A705988828983A3CF
:104DB300A3A3A3A3124E16E06A7003A3E06B70448F
:104DC30088828983124E16A3A3125F1024061255FC
:104DD300646A7003A3E06B702B88828983A3A3E0CA
:104DE300F88C828D83A3A3E0F9A3E0F5838982A3E2
:104DF300A3E068600D8C828D83125711540C6404F8
:104E030070027E01EEF9801AEA124E1022240FF589
:104E130082E422A3A3A3A3125A588C828D83221265
:104E230009167F010206A674F61203F074FC120938
:104E3300C5EAFEEBFFECFAEDFB8A828B83A3E05419
:104E430003601690032C125ACE60597900EEFCEFE2
:104E5300FD1274CD1221A3804B851882851983EE30
:104E6300F0A3EFF07402120BD71252F2AC18AD1983
:104E73007AEC7B0C120EE48A088B09A808A909E8CE
:104E830049602188828983A3A3A3A3A3A3A3A3A384
:104E93007406F07A0088828983125A66126492E05B
:104EA300F9120E4E7404024C2174F21203F074F3DF
:104EB3001209C5EAFEEBFF8E828F83A3A3A3A3A3EC
:104EC300A3A3A3A3A3E0F50A90122FE0700579BA78
:104ED3000251ED750801750900750C00750D007C14
:104EE300087D007900AA18AB191218927405120BE9
:104EF300D774011252C7540460127402120BD7E024
:104F0300D2E61252C754087003750803E0541060C8
:104F13000674404508F508E0540860227402120B39
:104F2300D7E044C01252C75420600A7403120BD74F
:104F3300E0D2E080087403120BD7E0D2E1F0EE2454
:104F430015125564125230700374016970067408A7
:104F53004508F5088E828F83A3A3A3A3A3A3A3A3CA
:104F6300E07016120F388518828519831252F27475
:104F730002120BD7E0D2E2802C640F70107402127D
:104F83000BD71252CF74044508F508807B8E828FAD
:104F930083A3A3A3A3A3A3A3A3E064028E828F830B
:104FA30070061232D0F08060A3A3A3A3A3A3A3A38C
:104FB300E06403700DAC18AD19EEFAEFFB120D228D
:104FC30080468E828F83A3A3A3A3A3A3A3A3E0649A
:104FD3000170359003B6E060107402120BD71252C1
:104FE300CF750910750AFF80187402120BD7E044BD
:104FF3000C1252B474FDF0A374FFF074044508F569
:10500300088E828F8312523CEE2415125564A2E05F
:10501300503F7402120BD7E0540C701B8E828F83A7
:10502300125A4E121F58E9700579BB0251ED7402F2
:10503300120BD7E0D2E5F0EE2415125564A2E0502E
:10504300107402120BD7E0540C64047004E0D2E530
:10505300F0EE2411125564C0E07404120BD7D0E0B3
:10506300126253120D88740C120BD7E060030251C5
:10507300E67408120BD7125264E508F0A3E509F0B1
:10508300EE2418125564C0E0125214D0E012527587
:10509300E0C0E07408120BD7125A66124B8438F53D
:1050A30083D0E01252E9640170119003B6E0C0E0CE
:1050B3007408120BD7125254D0E0F07408120BD7B5
:1050C3001252702417123E2FE812520BEA1252AFFB
:1050D300EE2415FAE43FFB8A828B83123F11E81218
:1050E3005202ECF0A3ED125280E0C0E01251F8D06E
:1050F300E01252C0125230700374016970137408C5
:10510300120BD7125AB0FAEE241D125564F912206D
:105113002A8E828F83A3A3A3A3A3A3A3A3A3E0C0E5
:10512300E07408120BD7124D4AD0E0F07408120B4A
:10513300D7124D3EE50AF07408120BD712595A24C0
:1051430028F582E439F583E50CF0A3E50D125293BB
:10515300FAA3E0FBE8242A1252A2240F1255641288
:10516300529B2417125564C0E0E82433F582E439D6
:10517300F583D0E0F012521EC0E07408120BD71270
:105183005248D0E0F0EE241A125564C0E0740812BD
:105193000BD7125A661251F238F583D0E012528BB4
:1051A300122BFD1208FF126811123F11740B120B20
:1051B300D71265D9FAA3E0FB1218867403120916F5
:1051C300EE241512556454406012900346125ACED1
:1051D300600AAA18AB191274CD1221A3AA18AB192D
:1051E300120D8E740C120BD7E0F9740D022C60248F
:1051F30032F582E422E82420F582E439F58322247F
:105203001EF582E439F58322241CF582E439F58303
:1052130022E82412F582E439F58322EE241B12528C
:105223002822EE240FF582E43FF583E0225480F830
:10523300A3E05401F97480682212524022E0F50C75
:10524300A3E0F50D221264FC2434F582E438F583DF
:10525300221264FC12525E38F583222415F582E48F
:105263002212595E124E1039F58322F58312483EFD
:10527300EE22F0EE2419F582E43FF58322F0EE24CA
:105283001CF582E43FF58322F0EE24131252282208
:10529300F0EE240D12522822FAA3E0FBE8242CF5A9
:1052A30082E439F583EAF0A3EBF0EE22F0A3E4F015
:1052B300221252B822F085188285198322F08A823D
:1052C3008B83E022F0EE241512522822E0D2E3125F
:1052D30069AE1252D922851882851983E8F0A3E9B1
:1052E300F022E8F0A3E91264E6E0228E828F83EADB
:1052F300F0A3EBF02274F71203F07E638A828B83B0
:10530300E0600C7905120E18E9F87456C398FE9004
:10531300035EE0600CF9120E18E9F8EEC39824F26C
:10532300FE024E0774F61203F074FE1209C58518C7
:10533300828519831252F2E9FEECFAEDFB9004CA5E
:10534300125ACE6035A818A9198808890978081255
:1053530009037D01740E120BD7E0FCEEF99004CA29
:105363001264AE1221A374021209168B09EA4509CD
:1053730060047900800679B2800279B6024C1F740A
:10538300F71203F0E9FE900322125ACE601F74094C
:10539300120BD7E0F5087808120907EEF9900322FB
:1053A3001264AE1221A37401120916800279B602A7
:1053B3004E2574F71203F08908ECFEEDFF79B5E58D
:1053C30008245E601F14600624F86033803C900458
:1053D300CC1248A860349004CC1264AE1221A312FC
:1053E30052EE8024900324123F11EC4D601CEEFC1E
:1053F300EFFD9003241264AE1221A3E9F9800B9010
:1054030003201265ED121A607900024E2574F7121B
:1054130003F0E9FE79B574AB6E700B900320125A5A
:105423004E121A607900024E2574F21203F08A08B4
:105433008B09ECFEEDFF750A01900366E0650870C9
:1054430004A3E065097014120F328A088B09AC08B3
:10545300AD09EEFAEFFB121A60802A120F3E8A0C96
:105463008B0DE508650C7004E509650D7009EEFA0E
:10547300EFFB120F44800EEEFCEFFDAA08AB0912FE
:10548300215CE9F50AA90A022C6374F21203F0EA1B
:10549300FEEBFF8C088D09750A01120F328A0C8B03
:1054A3000DAC0CAD0DEEFAEFFB121A5AE964017064
:1054B3000B9003661254CF126218800EAC08AD092C
:1054C300EEFAEFFB122156E9F50A80B91254D32202
:1054D3001269B58508828509832274F61203F0EAFE
:1054E300FEEBFF7A0D7B00121958EA4B6065EE2440
:1054F300241269D5F0EE24251269D5A312557D1225
:1055030069DBA3A3126841125568F0EE242A1255F1
:1055130071125646242C125571125644242EF582CC
:10552300E43FF583125568A3A3A3A3A3F0EE2433AA
:10553300125564C0E0125559D0E0126640125574FA
:10554300A3A3A31256442432125564C0E0125AE7AF
:10555300D0E0F0024C24EA1265C93BF58322EE2425
:105563000C12522822E08A828B83A3A3A322125215
:1055730028F8A3E0F98A828B8322F012558222EE67
:105583002426F582E43FF5832274F41203F074FEBB
:105593001209C5ECFEEDFFEE241612556464057086
:1055A30010EE2406FCE43FFD120D1CE970030256C5
:1055B30039AC18AD1912690B121F5E851882851953
:1055C30083125ACE606C8E828F83E064017059E837
:1055D30075F009A4F8AAF075F009E9A42AF974D4BE
:1055E30028F874FF39F9E8FAE9FB8A828B83780893
:1055F300120B80EE12563E120B424028851882850C
:10560300198312527012570612564A12563E120B43
:105613008090810C7808120A698A828B8378081239
:105623000B62800A79A28010EE240F1262127900B5
:10563300800679A1800279C802350B126AA6780820
:1056430022A3A3A3A3A3A31252DFEE2274F0120397
:10565300F08A088B09ECFEEDFF125705E4F0A3F086
:105663009080B8780C120B80126AA1780C1209DBB7
:1056730070030256FDEE240E1255646401703678F1
:10568300B390035DE0702A90038FE064017022EE13
:105693002411125564F9120E008A088B09A808A96F
:1056A30009EE240F126212E8496004780080027840
:1056B300A1880A8048E07017120D2EE9F50A603DB3
:1056C3008E828F83A3A31257115403700E802E640E
:1056D300027015120D2EE9F50A6022EEFCEFFDAA09
:1056E30008AB09121F6A8008E064037008120D2ECC
:1056F300E9F50A8008750AA18003750AA3A90A02BD
:105703004077EE124E103FF583228A828B83A3A348
:1057130012627F2274F01203F074F51209C5EAFED7
:10572300EBFFEE240AF508E43F850882F58312595E
:105733004A12591E74031209A78E828F83125A4E7E
:10574300120D1CE9700302580674011209A77403B1
:1057530012099F121F5E7401120BD7125ACE7003E7
:10576300025806E875F009A4F8AAF075F009E9A44F
:105773002AF974D028F874FF39F9E8FCE9FD126CB2
:10578300CFE4F004120BD712483AE508124E0C3559
:10579300091262168C828D83120BA812592A120BDE
:1057A3009C90810C7808120B808C828D8378081270
:1057B3000ADB8C828D837808120B809080C4780C6E
:1057C300120B807808790C120381E50C450D450E08
:1057D300450F702F7401120BD712595A75F009A493
:1057E300F8AAF075F009E9A42AF974D828F58274A7
:1057F300FF39F5837401F07A007B089010DDE0F93E
:105803001218EC125932E02406FCA3E03400FD8E9A
:10581300828F83125A4E120D1C85088285098312CA
:105823005AC37052125A84121A5AE9701D120F3257
:105833008A088B09AC08AD09900320125A4E121A3C
:105843005AE97006120DA0E9602C8E828F83123FF5
:10585300078E828F83125A4E121F70E960138E8255
:105863008F83A3A3125A5E124E0C38F583E4F0A380
:10587300F0125D3AE4F0125AB560030259118E82B8
:105883008F83A3A3A3A3A3A312594690035DE07040
:105893007290038FE06401706A750A3A750B0078A1
:1058A3000A1209037402120997880A890B780A12EB
:1058B30009037C017D007A007B00121040740412FE
:1058C3000916E9703B126CCF74011252B4E0C0E0C8
:1058D300E5082411126D2BD0E0F0125916743A1218
:1058E30052AF900348120BA812592A120B9C9081B5
:1058F3000C7808120B809003487808120ADB8003A7
:1059030012591E125AB5700612607774A1F0740B07
:10591300024074E508240F12427A22E508240F128C
:10592300427AE4F0A3F022E508241212427A22EE2E
:10593300240A12593D8882F58322F8E43FF9880846
:10594300890922A3A3A3A312594E22E0F508A3E0D9
:10595300F509228C828D8312595E221269B5E822E1
:1059630074F61203F0EAFEEBFFEE240A12593D7AB5
:10597300187B00121958850882850983EAF0A3EB86
:10598300125AE2E8497003025A24EEFAEFFB120DB1
:105993003A125AB56074125AA264018E828F83A39D
:1059A300A3A3A3A3A37007125A74740E8020125AE0
:1059B300CE700F125A84121A5AE97006120DA0E91A
:1059C3006007125A6A740D8005125A6A74051266CA
:1059D30040540364017007125A2B7405800B900323
:1059E3005EE0C0E0125A2BD0E0125AD3F5838882CE
:1059F300A3E0F9120E18850882850983125A6624DA
:105A030017F582E438F583E9801A850882850983CE
:105A1300125A4E12195E850882850983E4F0A38029
:105A230003126499F0024C248E828F83A3A3A3A351
:105A3300A3A3A3A3125A3B22A3A3126284A3228E7D
:105A4300828F83A3A3A3A3A3A3A3A3125A5822A31E
:105A5300A3A3A3A3A3E0FAA3E0FB22A3A3A3A3A36B
:105A6300A3A3A31264FC228E828F83A3A3A3A3A365
:105A7300A3A3A3A3A31264FC2416F582E438F5833D
:105A830022900320123F158E828F83A3A3A3A3A387
:105A9300A3A3A3A3A3E02406FAA3E03400FB228E6E
:105AA300828F83A3A3A3A3A3A3A3A3A3A3125D4C46
:105AB300E0228E828F83A3A3A3A3A3A3A3A3A3A361
:105AC3001264FC240FF582E438F58312595E4922EF
:105AD300125AD722125ADB22126AB3F8A3E0221217
:105AE3005AD7F922EA124BAA3BF5832274F1120327
:105AF300F08A0A8B0B8C088D097A187B00121958CF
:105B03008A0C8B0DAE0CAF0DEE4F7003025C2412AA
:105B13000F388A0C8B0DA80CA90DE5082415126A01
:105B23009C687003A3E0698E828F83700474028083
:105B3300027401F0E508240DF8E43509F988828937
