:020000040000FA
:06000000020AC20202190F
:03002B0002076B5E
:030053000201485F
:03006B00020794F5
:100083000201AA0105030101FF71220000000045DE
:100093002100000000FF000000FF00010020FD0020
:1000A300020612FFFF060001921000000001BA1AB7
:1000B300C01A0000C61ACC1A00000000000000009D
:1000C300000000000000000000001020202020207D
:1000D30020202020202020202020200101040100B6
:1000E300010005538001F98002040100010005535A
:1000F3008001F9800101010400D210000000E8032F
:100103000000FFFF2611E803000064006400B8014B
:10011300A0BB0D00A0BB0D000202000800000502F9
:10012300070401051E02051E020A0A01080803B896
:100133000B02803E0102FEFFE8030A050001FFFFF8
:10014300020A1401E0C0E074F1120498A2AFE43390
:10015300F509D2AF85A708AFA1EF5508FE74105E6D
:10016300600612147E75A1EF74085E600812148491
:1001730075A1F78024EFA2E092F0E508A2E082F0F7
:100183005017906198E0F890053AE0C398A2D265C1
:10019300D0335002E8F075A1FE751A00E509A2E01C
:1001A30092AF7F020204F7C0E074F2120498A2AF88
:1001B300E433FED2AF9061A4E0F8759B00E591585B
:1001C300540860087591F71214CC8023E5915854B4
:1001D3001060087591EF1214D28014E591A2E09299
:1001E300F0E8A2E082F05007E0C2E0F01216289097
:1001F30061A3E0F8E5E9585404600E1215FE75E9B1
:10020300FB906193E0A2E640F2751A00EEA2E09241
:10021300AF7F010204F7C0E074F2120498A2AFE4C6
:1002230033FED2AF9061A5E0F8E5BF5854046006F1
:1002330075BFFB12164080D1C3E498F8E499F91214
:10024300027C8026C3E49AFAE49BFBE920E7E912E7
:10025300027CE498F8E499F922C3E498F8E499F964
:1002630012027CE498F8E499F9C3E49AFAE49BFB5C
:1002730022EB20E7CFE920E7E0B90010BB0008E854
:100283008AF084F8AAF022E4FBC8FA22EB70227BFE
:1002930010C833C8C933C9335007C39AC3DBF280CC
:1002A300069A50012ADBEAC833F4C8C933F4C9FA01
:1002B3002275F008E4C833C8C933C933C99AC99B46
:1002C3005004C92AC93BD5F0ECFBC833F4C8E4C9D0
:1002D300FA22080808EAC0E0EBC0E086F0E7A4FAD7
:1002E300180986F0E7A42AFA180986F0E7A42AFA7F
:1002F300180986F0E7A42AFA1986F0E7A4FBE5F0CB
:100303002AFA190886F0E7A42BFBE5F03AFA190854
:1003130086F0E7A42BFBE5F03AFA18180986F0E714
:10032300A4C5F02BFBE43AFA1908E7C5F0C6A426E6
:10033300F6E5F03BFBE43AFA1886F0E7A4F6E5F0BD
:100343000826F6E43B08F6E43A08F6D0E0FBD0E0F2
:10035300FA22E4CFC0E0E4CEC0E0E4CDC0E0E4CCD8
:10036300C0E075F020E626F608E633F608E633F635
:1003730008E633F6181818EC33FCED33FDEE33FEC4
:10038300EF33FFC3EC9709ED9709EE9709EF971940
:100393001919400FFFEC97FC09ED97FD09EE97FE45
:1003A300191906D5F0BFECF709EDF709EEF709EFD8
:1003B300F7191919D0E0FCD0E0FDD0E0FED0E0FF42
:1003C300222518C582C0E0E51934FFC583C0E0E5E6
:1003D30018C3958224F810AF088583198582188085
:1003E30008858319858218D2AFCEF0A3E520F0A348
:1003F3007808E608F0A3DEFAEFF0A3E58124FAF823
:10040300E608F0A3E608F0A3E608F0A30808E60868
:10041300F0A3E608F0A315811581D0E0FED0E0F843
:10042300158115811581E8C0E0EEC0E022120B3082
:10043300B90003020482E490030178CE790F8002AD
:10044300F0A3D8FCD9FA781A9000867A01BA000290
:100453008007E493A3F608DAF97ACE7B119000873C
:1004630078C279018015E493A3AD82AE838A828B2F
:1004730083F0A3AA82AB838D828E83D8E9D9E775F3
:1004830082027583F2740312085D75824075831FBF
:10049300740012085DC0D02518C582C0E0E5193488
:1004A300FFC583C0E0E518C3958224F310AF088528
:1004B30083198582188008858319858218D2AFC86D
:1004C300F0A3E9F0A3EAF0A3EBF0A37908E709F0BE
:1004D300A3D8FAECF0A3EDF0A3EEF0A3EFF0A3D0D2
:1004E300E0F0A3D0E0F0A3D0E0F0A3E520F0A3E593
:1004F300F0F0A322851983851882E0C0E0A3E0F918
:10050300A3E0FAA3E0FBA37808E0F608A3DFFAE090
:10051300FCA3E0FDA3E0FEA3E0FFA3E0C0E0A3E0B3
:10052300C0E0A3E0F5D0A3E0F520A3E0A3F5F0102D
:10053300AF088583198582188008858319858218F9
:10054300D2AFD082D083D0E0F8D0E0320475F0107F
:100553008E218F228582268583258518828519839E
:10056300E0CEA3E0CF852682852583EBC9EAC8EDDB
:10057300CBECCAC3E833C8E933C9EA33CAEB33CB9C
:10058300C3EA9EF524EB9FF523B35004AB23AA24BF
:10059300EC33CCED33CDD5F0DAAE21AF2222D083CC
:1005A300D082ECC0E0EDC0E0E493A3FCE493A3FDB0
:1005B300ED4C600D120679EC24FFFCED34FFFD8059
:1005C300EFE493A3FCE493A3FDED4C600D12071637
:1005D300EC24FFFCED34FFFD80EFD0E0FDD0E0FC28
:1005E300E493A3C0E0E493C0E022851983851882D5
:1005F300E0A3FEE0A3F5207808E0A3F608DFFAE025
:10060300A3FFE0A3C0E0E0A3C0E0E0A3C0E0E0A359
:10061300C0E0E0A3C0E010AF08858218858319808D
:1006230008858218858319D2AFD083D082020863EC
:10063300D083D082E9C0E0E493A3C386F0C5F095EC
:10064300F0F908E493A386F0C5F095F0700BE493FA
:10065300A3C3994005E9048002A3E475F002A4252D
:1006630082F582E5F03583F583D0E0F9E493A3C006
:10067300E0E493C0E022C0E0C3E4939608740193DE
:100683009618400FE4936670080874019366187017
:10069300007019A3A3C3E49396087401939618A357
:1006A300A3400DD0E0D0E0D0E00205DDA3A3A3A3D7
:1006B300A3A3D0E0227404800474028000CCC0E0C1
:1006C300EDC0E0E518C39CCCAD1950011D10AF0679
:1006D3008C188D1980068C188D19D2AF1207DFD0B4
:1006E300E0FDD0E0FC2274028000CCC0E0EDC0E06D
:1006F300E518C39CCCAD1950011D10AF068C188DA5
:100703001980068C188D19D2AF1207BDD0E0FDD029
:10071300E0FC22C0E0C0F088F0E49366700808743F
:10072300019366187000A8F0A3A3700BD0F0D0E07B
:10073300D0E0D0E00205DDA3A3D0F0D0E022D08347
:10074300D082CCC0E0E493A3600612083E1470FA92
:10075300E493A360061209451470FAD0E0FCE49315
:10076300A3C0E0E493C0E022C0E0C0D0E8C0E0E969
:10077300C0E0A9A8D2AFC2C7751A00E9A2E7E43363
:10078300F8E9A2E792AFD0E0F9D0E0F8D0D0D0E01A
:1007930032C0E074F2120498A2AFE433FED2AFE5A4
:1007A30089A2E150031213B8758900C2C5751A00F6
:1007B300EEA2E092AF7F010204F7CAC0E0E493A384
:1007C300C582CCC582C583CDC583F0A3C582CCC504
:1007D30082C583CDC583DAE5D0E0CA22CAC0E0E092
:1007E300A3C582CCC582C583CDC583F0A3C582CC06
:1007F300C582C583CDC583DAE6D0E0CA22C008C36B
:10080300E096F50808A3E096420808A3E09642089C
:1008130008A3E09645087001D3D0082270090808A0
:1008230008226016181818C6C333C608C633C6088C
:10083300C633C608C633C6D5E0EA22C0E0E493A3B4
:10084300D39C5010E493A3C39C400AD0E0D0E0D0E3
:10085300E002075EA3A3A3D0E022C09FF59FE47349
:10086300D09F22D083D082C09FE493C0E0740193D1
:10087300C0E0740293F59F227404800A7403800617
:10088300740280027401C0E0F4041208B1D0E012D3
:100893000AFF2200C0D0251810AF08F518500C0528
:1008A300198008F51850020519D2AFD0D0222518A7
:1008B300F58210AF08F518400C15198008F518409B
:1008C300021519D2AF85198322BB0102E722C08228
:1008D300C08389828A83BB0003E08002E493D083D0
:1008E300D082226016080808C6C313C618C613C6EA
:1008F30018C613C618C613C6D5E0EA222518F8E4AD
:100903003519F9222518FAE43519FB222518FCE4D8
:100913003519FD22C3E0C696F608A3E0C696F6088D
:10092300A3E0C696F608A3E0C696F622251810AFF4
:1009330008F518400C15198008F51840021519D24E
:10094300AF22C0E0E493A36C7009D0E0D0E0D0E024
:1009530002075EA3A3D0E022C3E09608A3E09608B3
:10096300A3E09608A3E096A2D265D03322E0667096
:100973001008A3E066700A08A3E066700408A3E009
:100983006622E76670100809E766700A0809E766D9
:1009930070040809E76622C3E096F008A3E096F026
:1009A30008A3E096F008A3E096F022C3E697F608C2
:1009B30009E697F60809E697F60809E697F622C3CB
:1009C300E49396087401939608740293960874034B
:1009D300939622E627F60809E637F60809E637F67E
:1009E3000809E637F622700422600D18C6C333C621
:1009F30008C633C6D5E0F41822E493F608740193CD
:100A0300F608740293F608740393F622E657F60881
:100A130009E657F60809E657F60809E657F622E00D
:100A230056F608A3E056F608A3E056F608A3E056E8
:100A3300F622E056F008A3E056F008A3E056F008CB
:100A4300A3E056F022E026F608A3E036F608A3E07A
:100A530036F608A3E036F622E647F60809E647F637
:100A63000809E647F60809E647F622E026F008A358
:100A7300E036F008A3E036F008A3E036F022E4C342
:100A830096F608E496F608E496F608E496F622C687
:100A9300F4C608C6F4C608C6F4C608C6F4C622C31C
:100AA300E7960809E7960809E7960809E79622C337
:100AB300E09608A3E09608A3E09608A3E0962275C3
:100AC300D00075813F75180175190300020430E6E3
:100AD300F008A3E6F008A3E6F008A3E6F022600C12
:100AE30008C6C313C618C613C6D5E0F422E0F60839
:100AF300A3E0F608A3E0F608A3E0F622CAC0E0E606
:100B0300F0A308DAFAD0E0FA22E8F0A3E9F0A3EAC6
:100B1300F0A3EBF022E0F8A3E0F9A3E0FAA3E0FBF3
:100B230022E0FAA3E0FBA3E0FCA3E0FD22E5C75427
:100B3300F84401F5C77901222518F582E43519F542
:100B43008322C2AF75D69F020000221208668DCAA7
:100B5300021208663BCB02120866E0CB021208665B
:100B630015CC02120866B5CC0212086631CD02120A
:100B730008662625001208665825001208668C258B
:100B8300001208664027001208661428001208663F
:100B9300732800120866892900120866D5290012F5
:100BA3000866722C00120866E72E001208663330BE
:100BB30000120866CB3000120866D73000120866B0
:100BC300203100120866533100120866DF3100122B
:100BD3000866F132001208663234001208663135B5
:100BE300001208665B3500120866C63500120866F7
:100BF3001F3600120866923600120866C8380012C3
:100C030008664E3A00120866393B00120866873CB4
:100C130000120866BF3E00120866B641001208665D
:100C2300C5410012086659420012086604430012C7
:100C33000866474300120866904300120866E043C3
:100C4300001208664D4400120866B9440012086693
:100C5300D54400120866BD450012086634480012E8
:100C63000866664900120866354A00120866B74AE4
:100C730000120866034F00120866324F001208661E
:100C83008D4F00120866C04F001208661B500012F9
:100C93000866375000120866985000120866E8503C
:100CA300001208669751001208665A52001208662D
:100CB3002253001208666E5500120866FA56001297
:100CC30008665158001208666D590012086670597B
:100CD300001208669F59001208668E5B00120866B0
:100CE300575C00120866985C00120866EE5D0012FD
:100CF3000866645E00120866975E00120866FB5E73
:100D0300001208661C61001208667B610012086607
:100D13005162001208666562001208667962001269
:100D23000866A66200120866D662001208667A6434
:100D330000120866776500120866C565001208662A
:100D4300EC6500120866C766001208666D6700123C
:100D53000866F368001208663A6900120866A76914
:100D630000120866FC6A00120866A56B001208668A
:100D7300D96B00120866F16B00120866946C0012BE
:100D83000866106F00120866B87000120866DC70FF
:100D930000120866FA7000120866C671001208662F
:100DA300147500120866FF80011208663181011272
:100DB3000866B18501120866008601120866468638
:100DC30001120866E986011208664E870112086659
:100DD300928701120866F98801120866258A0112B2
:100DE3000866228E01120866A18E01120866C78F5B
:100DF300011208662A9001120866769101120866AC
:100E03000E94011208669B9401120866A5940112C0
:100E13000866CD94011208669595011208662A9614
:100E2300011208665396011208668096011208663D
:100E3300D59801120866A29901120866E199011278
:100E43000866639A011208660E9B01120866409BAE
:100E5300011208668B9B01120866C49B0112086687
:100E6300139C011208666F9C01120866F19C011223
:100E73000866569D01120866CE9D01120866779F8B
:100E8300011208666FA001120866B0A1011208667C
:100E930004A50112086660A70112086619A80112C9
:100EA300086661A80112086642AA011208667DAAB3
:100EB3000112086686AA011208668FAA0112086643
:100EC3009AAA01120866B9AA011208666CAB01124C
:100ED3000866C9AB01120866D3AB011208662AACD7
:100EE30001120866F1AC011208661BAE0112086616
:100EF30046AF011208663CB00112086654B00112F5
:100F0300086688B001120866A6B001120866EEB042
:100F13000112086627B101120866DEB101120866E4
:100F23009FB20112086612B3011208668EB3011252
:100F330008662AB40112086650B5011208660CB699
:100F430001120866ACB60112086699B70112086669
:100F5300F1B701120866B7B801120866DAB80112D0
:100F63000866EFB9011208663ABA0112086696BA22
:100F730001120866FEBA0112086622BB0112086656
:100F83004ABB011208668FBB01120866B3BB01128C
:100F9300086637BC0112086620BD0112086665BDEC
:100FA300011208668EBD011208662CBE0112086686
:100FB30097BE01120866C3BE01120866A4BF0112E0
:100FC30008663275001208666A75001208668B752A
:100FD30000120866CD7500120866317600120866A5
:100FE3003B76001208664B76001208668276001282
:100FF30008662B7A00120866F37B00120866D77D19
:1010030000120866797E00120866037F00120866E4
:1010130094C101120866F8C10112086656C2011292
:101023000866A1C201120866BCC201120866E3C2C7
:101033000112086600C3011208660CC30112086698
:101043009DC401120866B6C40112086632C50112B6
:10105300086645C50112086655C501120866F9C53B
:101063000112086665C70112086678C8011208668E
:1010730018C90112086622C901120866A1C9011222
:101083000866B2C901120866F1C9011208661FCACF
:1010930001120866ECCA0112086643CB0112086606
:1010A3007CCB01120866D2CB01120866F0CB011289
:1010B30008663ECC0112086609CD0112086657CDB9
:1010C30001120866A4CD0112086627CE0112086634
:1010D30051CE0112086687CE0112086696CE011220
:1010E3000866F5CE011208666DCF01120866AECF11
:1010F30001120866FECF0112086629D001120866A4
:1011030043D0011208665DD00112086632D1011284
:1011130008663CD10112086677D10112086687D1AF
:101123000112086690D101120866E1D10112086626
:10113300F5D10112086617D3011208662ED30112E6
:10114300086643D301120866D6D3011208664AD44F
:1011530001120866EFD401120866FAD40112086678
:101163005AD60112086676D601120866C2D6011253
:10117300086630D70112086662D7011208667CD769
:1011830001120866BED70112086611DA0112086659
:10119300A9DA0112086620DB011208667DDD01125F
:1011A300086695DD0112086698DD01120866A4DD64
:1011B30001120866B8DD01120866C0DD0112086677
:1011C300F7DD01120866EBDE0112086675DF011216
:1011D3000866F7DF0112086677E0011208664EE140
:1011E3000112086670E10112086609E2011208663D
:1011F30066E20112086669E20112086696E20112CC
:101203000866ABE2011208661AE30112086666E497
:101213000112086679E50112086604E60112086600
:1012230017E701120866DCE7011208660DE80112F0
:10123300086633E8011208663CE8011208666BE8A9
:10124300011208661BE901120866CBE90112086660
:101253003EEA01120866E1EA0112086654EB011244
:10126300086693EB01120866DCEB0112086611ECC9
:1012730001120866DDBF031208664AC0031208663E
:1012830096C003120866E8C00312086668C1031219
:10129300086665C30312086678C503120866B1C8F9
:1012A30003120866E0C803120866FEC80312086644
:1012B30068C90312086690C903120866C3C90312FA
:1012C3000866F8C9031208665ACA0312086629B3E6
:1012D30003120866A5B303120866D3B303120866A4
:1012E30018B40312086679B50312086695B503129C
:1012F3000866CBB50312086644B60312086692B6B5
:101303000312086622B703120866FAB703120866C7
:101313004BB803120866B0B80312086623B9031268
:10132300086667B903120866BFB903120866E1B914
:101333000312086671BA0312086602BB0312086639
:101343003ABB0312086663BB03120866A4BB03120D
:10135300086645BD0312086627BE0312086603BF6D
:1013630003120866449704120866F1FF0112086627
:101373005E97041208660493041208661493041219
:101383000866269304120866DA930412086610901E
:1013930004120866949004120866FA900412086610
:1013A3001392041208662F9204120866869204129E
:1013B3000866919204120866CD9204120866F892A8
:1013C30004120866FB9204120866F8ED031208661D
:1013D30006EE031208667FEE0312086654EF03124B
:1013E300086626F1031208668BF103120866EEF114
:1013F30003120866F87F00120866F489041208666F
:101403002C8A041208667A8B04120866FE8B041277
:1014130008668FFA01120866BBFA0112086651FDCD
:101423000112086691FD01120866CDFD01120866DE
:10143300E1FD01120866FAFD01120866EBFE0112D6
:1014430008669DFF01120866B1FF01120866018C50
:1014530004120866258C041208663E8C0412086682
:101463007C8C04120866B28C04120866E58C0412A4
:101473000866EF8C041208665B8D041208665E8DA5
:1014830004120866688D04120866758D04120866D6
:10149300C7C102120866F58204120866408304126B
:1014A30008665E8304120866798304120866DF8384
:1014B30004120866EB830412086648840412086663
:1014C3006C84041208663285041208663F85041290
:1014D3000866508504120866FD960412086615977F
:1014E3000412086641970412086692DB0312086629
:1014F300F6DC0312086638CA0212086618DD031206
:10150300086635DD031208664ADD031208665DDDF1
:1015130003120866DFDD0312086644DE0312086661
:10152300CCDE0312086644DF031208661DE00312D3
:1015330008662DE0031208663CE00312086638953E
:10154300041208665C950412086684950412086602
:10155300AC9504120866C38704120866EA8704126E
:1015630008660888041208667D88041208660080ED
:101573000412086619800412086630800412086693
:1015830039800412086657800412086661800412C9
:1015930008666B80041208667E8004120866048164
:1015A30004120866798104120866A781041208668A
:1015B300F881041208664482041208665F820412EA
:1015C30008666982041208667A8204120866BD827C
:1015D30004120866569604120866A1960412086659
:1015E300A5CA03120866D1CA03120866F4CA031215
:1015F300086607CB0312086622CB0312086686CB64
:1016030003120866B4CB03120866C4CF031208663C
:1016130019D1031208664BD103120866B6D103121F
:10162300086613D3031208663BD30312086650D32C
:101633000312086660D303120866A0D30312086678
:10164300E2D303120866F2D3031208667F8D0412F5
:1016530008668F8D04120866B38D04120866DC8D4C
:1016630004120866068E041208662A8E041208669F
:10167300418E041208666F8E04120866928E04125D
:1016830008664EFF0312086692FF03120866D2F53E
:1016930003120866E2F503120866FEF603120866F3
:1016A30030F70312086656F7031208667EF7031233
:1016B300086690F703120866CCF7031208662EF843
:1016C3000312086673F803120866B8F80312086673
:1016D300E5F8031208661DF903120866D1FE02122B
:1016E3000866E3FE02120866C8FF02120866CBFF13
:1016F30002120866E0930412086616940412086640
:1017030032940412086674940412086680940412D6
:10171300086622D4031208665CD403120866C5D493
:1017230003120866E4D40312086686D5031208661A
:101733008FD503120866E0D50312086609D6031293
:10174300086616D60312086687D60312086615D7ED
:101753000312086663D70312086699D70312086653
:10176300FAD70312086622D80312086699D803121F
:101773000866F5D80312086638D90312086675D9C6
:101783000312086687D90312086699D903120866FB
:10179300B8D903120866C1D90312086694DA031292
:1017A3000866E0DA031208661EDB03120866CA8EB7
:1017B300041208667E8504120866B485041208665E
:1017C3000386041208665C8704120866A3EA021201
:1017D3000866D4EB0212086610EC02120866CAED22
:1017E30002120866F4ED021208666DF00212086632
:1017F300ADF00212086642F202120866E1F202122A
:10180300086639F302120866BFF302120866F7F39B
:101813000212086639F402120866AAF50212086673
:101823002AF7021208666BF90212086699F9021286
:101833000866C5F902120866CEF90212086624FA90
:1018430002120866B4FA02120866F2FD0212086672
:1018530074FE021208668A9404120866A0940412A5
:101863000866AA9404120866009504120866AD96E9
:101873000412086611E50312086626E503120866DA
:10188300D6E50312086616E6031208662FE603126E
:10189300086662E603120866AFE603120866E3E62B
:1018A3000312086625E70312086623E90312086694
:1018B30089E90312086613910412086672910412EF
:1018C3000866B09104120866F1910412086600805C
:1018D300021208660C80021208666E800212086605
:1018E3007880021208660B81021208664781021291
:1018F30008660282021208661582021208667C825A
:10190300021208661683021208669683021208669C
:101913004E85021208662387021208667F88021228
:101923000866EC89021208668E8A02120866258F01
:1019330002120866249002120866B1900212086629
:10194300D690021208667091021208668E910212F6
:101953000866AB91021208661F92021208663B9258
:1019630002120866689202120866E9930212086678
:101973000A94021208668B940212086631950212C9
:101983000866789502120866E89502120866829640
:1019930002120866FA960212086665970212086632
:1019A300049802120866719802120866AC98021233
:1019B30008660F9902120866669A02120866F99A77
:1019C30002120866B09B02120866349D0212086672
:1019D300CD9D021208663F9E021208663CA00212C9
:1019E3000866E8A10212086615A202120866F7A3A8
:1019F30002120866E6A502120866ECA60212086641
:101A03008DCD021208662DCE02120866AECE0212EA
:101A13000866ACCF021208662BD00212086670D19A
:101A23000212086610D202120866BFD302120866B9
:101A3300CBD402120866E8D40212086618D6021242
:101A4300086634D702120866DED70212086622DB64
:101A5300021208662FDD02120866B7DD021208665D
:101A630011DE0212086664DE02120866D9DE021273
:101A7300086661DF0212086699DF0212086678E6DB
:101A830002120866D2E802120866AEE9021208667C
:101A9300B27F001208666DE00312086670E003125D
:101AA3000866C6E003120866CBE103120866D1E2BA
:101AB30003120866D0E30312086614E403120866EF
:101AC3004FE40312086669E4031208666CE4031228
:101AD3000866008003120866588003120866DE80D9
:101AE30003120866E681031208662E820312086653
:101AF300A08203120866F182031208662C83031284
:101B03000866448303120866F08503120866888614
:101B130003120866BF8603120866F7860312086677
:101B2300428903120866928903120866D489031254
:101B33000866AE8A03120866E78A03120866068BF4
:101B430003120866518B03120866718B0312086631
:101B5300188C031208669D8C03120866F88C031216
:101B63000866388D031208664E8E03120866C49009
:101B730003120866F0910312086636920312086690
:101B8300FE920312086643930312086646930312F8
:101B93000866509303120866539303120866D7939B
:101BA300031208661094031208663D940312086634
:101BB300649403120866889403120866239503123B
:101BC30008662F95031208665C95031208667C95D8
:101BD30003120866BF9503120866F695031208669A
:101BE300F59603120866249803120866D195041229
:101BF3000866DD9504120866199604120866F4FF58
:101C0300011208667CEC011208669FEC011208665B
:101C130089ED01120866DBED011208663DEE011243
:101C230008668FEE01120866D7EE0112086640EFD0
:101C330001120866C5EF0112086641F00112086639
:101C430087F0011208668CF401120866F0F601129F
:101C53000866E7F7011208666EF8011208663CA6EB
:101C630003120866DCA60312086648A70312086677
:101C730007A8031208666BA803120866AEA903122D
:101C83000866BDAA031208663FAB0312086617ADC8
:101C930003120866B9AD0312086628AE031208667C
:101CA3003BB003120866CEB003120866EBB1031211
:101CB30008664D9803120866B898031208660099DF
:101CC300031208664499031208669699031208667C
:101CD300F399031208662E9A03120866CD9A03122B
:101CE30008663E9B03120866C29B03120866359C76
:101CF300031208664F9C03120866609C0312086671
:101D0300BA9C031208661F9E031208663E9E0312C6
:101D13000866869F0312086605A00312086646A09C
:101D23000312086640A1031208664DA20312086657
:101D330045A30312086653A3031208663EA40312C5
:101D43000866E0A40312086650A50312086665A599
:101D53000312086606A60312086673FC03120866DC
:101D6300B3FD0312086672FE03120866DAFE03125D
:101D7300086671F9031208668CF903120866D0F934
:101D830003120866F6F9031208661DFA03120866C1
:101D930035FA03120866D8FA03120866EDFA03123D
:101DA30008660FFC0312086618FC0312086621FC80
:101DB300031208662AFC0312086696E903120866F2
:101DC3008AED031208668FED0312086691ED031284
:101DD30008665FF403120866C5FF011208667EC138
:101DE3000212086632C102120866C1C002120866F6
:101DF300A5C0021208665CC002120866EABF02129E
:101E03000866C6BF02120866A2BF0212086697BF21
:101E13000212086669BF021208663ABF0212086618
:101E230030BF0212086627BF021208661EBF0212E5
:101E3300086614BF0212086604BF02120866F0BEE9
:101E43000212086625BB021208664BB90212086625
:101E5300DAB80212086649B8021208662DB70212F0
:101E6300086644B5021208663BB502120866F3C958
:101E7300021208662EB502120866C0C8021208666E
:101E830098C80212086643C802120866B8C502124F
:101E93000866F0C40212086631B4021208660CB474
:101EA300021208661CB30212086651C402120866C5
:101EB300B2B20212086619B202120866A7B1021280
:101EC300086696B10212086686C20212086671B0ED
:101ED3000212086604DD03120866F5AF02120866F3
:101EE3004DAF02120866A6AE0212086648AE021291
:101EF30008661DAE02120866CEAD0212086690ADEA
:101F0300021208666EAD021208664BAD0212086635
:101F130032AD02120866EAAC0212086634AC021251
:101F23000866A8AB021208663CAB0212086605C23B
:101F330002120866E5AA02120866D28204000000B3
:101F430080FBE4738F000100C411870001008A1233
:101F5300350004005012250002005412260002002E
:101F630056122700020058122800010062122900AD
:101F730001006312840004006412860001006812E9
:101F83002A00010069122B0001006A122C000100D3
:101F93006E122D000800A6112E0001006F122F00F3
:101FA3000100701230000100711231000100721241
:101FB30032000100AE1133000100AF113400010003
:101FC300731236000100B011380001007412390099
:101FD30001006D1283000200881263000100C11129
:101FE300640001006B12650001006C126D000100BA
:101FF300C211710008009E116600010087124300A0
:1020030001007812440002007912450001007B129E
:10201300460002007C1247000800B9114800010085
:102023007E124B0001007F12040001008B12A100FD
:1020330001008E12370001008D12880001008C12FE
:102043003C000100B1113D0001007512490002007E
:10205300801267000100C3114D00020082124E007E
:10206300010084124F00020085123E000100B811E6
:1020730051000100B2115200010076125300010019
:10208300771254000100B3110000000000000001AA
:1020930036360101000102010001030100010401C0
:1020A300060605020000070100340801000F0904B9
:1020B30001010D0100FF0E080000170200001901C5
:1020C30000FF1A0100011B0100FE1C0100081D0294
:1020D30000001F0100012001000121020000230173
:1020E300000F240200002601000127010008280236
:1020F30000FF2A0100072B0102402C0100002D01E3
:1021030000012E0100012F0100FF30010B1D3108DA
:1021130000003A0100083B01000F3C0100013D01B2
:1021230000FF3E04000042040000460400004A048D
:1021330000004E04000052040000560400005A043C
:102143000000010371030103010301030103010300
:10215300220302030103100300030003000300032F
:1021630000030003000342030003240306030003E8
:10217300000304031203250323032503230304039A
:1021830004030003000300034403000300032303C9
:1021930000036503210035038103000305030003E6
:1021A300000300030003250323030302710230012C
:1021B3006002110270020102020202028002100296
:1021C30061023A0041006302730272026202430237
:1021D300000213023800000200020402120200028D
:1021E30000020002000204020402370037003C022E
:1021F30044020002390000020002650200023502B7
:1022030081020002050282028302000201017101C0
:1022130001010101110101013101010101018001EC
:10222300100161013B00140063017301720162013B
:1022330043010001130106013D01350004011201B0
:102243000001000100010001040104013301330115
:102253003C01440132013600000100016501000127
:1022630035008101000105018201830100010300A2
:10227300710030016000110070003102200350042E
:1022830080001000610000001400630073007200FE
:102293006200430000001300060000000000040079
:1022A30012000000000000000000040004003700DA
:1022B30037003C02440000000000000000006500FD
:1022C30000003500810000000500000083000000CD
:1022D30036000100060000000F00000000000000AF
:1022E30000000000000003FFFF00000403FFFF00E5
:1022F30000FFFF0FF4010005C404032000010000E8
:102303000B000000000000000003010F00000000AC
:1023130000000000000000000000000000000000BA
:102323000000000000000000000000000000AC19E5
:10233300E819B219EC18B819EE19B819FA19BE1937
:10234300EC18B819EE19C419EC18CA19EC18D019FD
:10235300EC18D619EC18DC19EC18E219EC1800008B
:10236300000000000000000000000000000000006A
:10237300000000000000000000000000000000005A
:102383000000000000000000000000000300200126
:10239300FB80000000002001FD80000004004201DA
:1023A3007D800000050042014780000006004201D5
:1023B3002680000007002001FE8000001000420379
:1023C3001412000011002003A110000012001003DA
:1023D3002512030000002103A210060000001001D3
:1023E300A4100A000000020000000400000008001E
:1023F30000001000000020000000400000008000EA
:1024030000000001000000020000000400000008BA
:10241300000000100000002000000040000007EC56
:10242300FDFDFDECDCDCCCBCACAC9C9C8C7C7C6C06
:102433006C5C5C5C4C4C3C3C2C2C1C1C0100761CE6
:102443000200221C0300281C04002E1C0500341C5F
:102453000600401CFFFF000003EAF5E5D5D5C5B52E
:10246300A595958585757565655555454535352519
:10247300251515050A180E02E80D05FA0D07EE0DD0
:102483000CD00D0DDC0DFF000000160F00000B1526
:102493000B020002220F3300000E5A696742656582
:1024A300416C6C69616E6365303901030507090B83
:1024B3000D0F00020406080A0C0D303017181921FD
:1024C300301B1D1F30303016181920231A1C1E30E4
:1024D3000C0E020B040B0A0708000F00034A4943C2
:1024E3004E181A25050200393D3F373C3C362C4433
:1024F3002D000119161816161823030002040201F1
:10250300010101090200BE040AE8030000E8030E0A
:102513000009081E1E2803040403100C05080A0BF7
:1025230004FF0CC082C0831212CE900322748AF07F
:10253300A3740BF09003247490F0A3740BF0900336
:10254300267496F0A3740BF0900328749CF0A37484
:102553000BF0025C5074F71203C4E9FE900316E417
:10256300F0EE900315F07CB97D117A177B031218F6
:10257300C890127EE090031FF0900320749EF0A396
:102583007411F0120BC0024A3074F01203C48A08AB
:102593008B09EB548070030226E4900315E0F912D3
:1025A30017488A0A8B0BAE0AAF0BEE4F7003022655
:1025B300DB124E29707EEE241F12516F64137002DA
:1025C300A3E070708E828F83A3A3E0F50EA3E0F5E2
:1025D3000F900330125659750A00750B00800D12C7
:1025E300341B125E231217C6AA0CAB0DEA4B6044D0
:1025F3008A828B83E0650E7004A3E0650F70288ADE
:10260300828B83A3A3A3A3124E47E50A450B8A82B9
:102613008B83A3A3A3A360C7124445850A82850BBA
:1026230083A3A3A3A380BB8A0A8B0B8A828B831207
:10263300565580B8EE242A12516FF91261DC9003CB
:10264300301238B4A3A3A3A3A3A3A3A3E06402708B
:10265300378A828B8312565980078C828D83123B73
:1026630018EC4D60208C828D83E06A7003A3E06BCD
:1026730070E88C828D83A3A3E06970DE90128412CC
:1026830047C3F0804C120BD88E828F83E0640170B5
:1026930034EE241812273812088712423E1206B865
:1026A300EE241212273812088712423212088312BC
:1026B30032E31206BCEE241712424612128C740A3D
:1026C300120896800CE064027007EEFAEFFB120C1E
:1026D300F8EEFAEFFB121736AA08E5096480FB80CF
:1026E30051EA5402600C9011D17401F0EA6402FAC9
:1026F3008040EA54046009120BC6E508640480298B
:10270300EA54086029120BD28B0BEA450B70169022
:102713000332E4F0A3F0A3F0A3F07A08FB900315CF
:10272300E0F9121898E5086408FAAB0980047A0006
:102733007B00023C82124E33F50A780A2274F412AB
:1027430003C48A088B098A828B8312566E12413224
:1027530038F583E02409FA7B001217308A0A8B0BC1
:10276300AE0AAF0BEE4F70030228048E828F837480
:1027730002F0A3E4126560A3A3A3A3E8F0A3E91204
:102783006200A3A3A3A3A3A3A3F0E5082403F8E48F
:1027930035091259111241323AF5831238ADF0EE70
:1027A3002409FAE43FFB8E828F83A3A3125DAEF567
:1027B300838882E0A2E58E828F83A3A3A3A3A35081
:1027C3000474018001E4F0E5082403F88882898316
:1027D300125659EA1241263BF58312280712087F45
:1027E300EA2410125E498E828F83125657121712F3
:1027F3007403120896EEFAEFFB900315E0F9121733
:102803003C02311BE0F508A3E0F509750A007808DE
:102813002274F21203C48A088B09ECFAEDFB740EDE
:10282300120B3BE0FC1212FE8A0C8B0DAE0CAF0DAB
:10283300EE4F6030AC08AD091212ECE96026AC082B
:10284300AD09EEFAEFFB1212F2E970148E828F8358
:102853001243D9FAEFFB1212E6AA08AB09121316B8
:102863007900800279B480031208967F060205ED91
:1028730074EE1203C474F712092F8A0A8B0BECFE51
:10288300EDFF750CB3750D00750E008002050E90FB
:10289300251AE493F8E50EC3984003022982AA0E91
:1028A3007B0012133A8A088B09EA450960DF8A82A2
:1028B3008B83A3A3A3A3A3E0250DF50DF8C3E50A1A
:1028C30098E50B940050C67C157D007900EEFAEF75
:1028D300FB12171E850882850983A3A3A3A3A3E084
:1028E300F8E50AC3950D2825E0F8E433F9E508284F
:1028F300F582E50939F583123683125E23120EA899
:102903008A0A8B0BAC0AAD0BEEFAEFFB1218C885E3
:102913000882850983A3E06401700B12423E7401AF
:102923001270A3A3803DAC18AD1985088285098375
:10293300125657121322E9602D7408120B3BE0C0A4
:10294300E012423ED0E0F07408120B3BE0640370E7
:102953000CAC18AD191238A51218C8800985188255
:10296300851983125E17850882850983123C55A356
:10297300A3126537C0E0123E73D0E0F0750C00A9D6
:102983000C74090268D274F71203C4E9FE8A828BBD
:1029930083A3A3A3A3A3A3E0540860338A828B83F6
:1029A300A3A3A3A3A3A3E0540260218A828B83A3DE
:1029B300A3A3A3A3A3A3A3A3E06406600F74E96E78
:1029C300600A74CD6E600574F06E7003120BA8027A
:1029D3004A3074E81203C474F812092F7406120BF8
:1029E3003B124EFDECFEEDFF8917751500122C4BC3
:1029F30012130A8A0A8B0BEA450B7003022C07EEAB
:102A03002410123A3AA90A121DFC8A128B13EA45C2
:102A1300137003022C07EE2403F50CE43FF50DEECF
:102A23002406F508E43FF5097C0085088212418AF3
:102A33001213108A108B11850C82850D83E0851289
:102A430082851383A3A3A31256ED85128285138374
:102A5300A3A3A3A3E8F0A3E91232EB8512828513A3
:102A630083A3A3A3A3A3A3A3124EBA8512828513A0
:102A730083A3A3A3A3A3A3F0EE1241263F122C5CCE
:102A830012087FEE1241323F125E4D85128285138A
:102A930083A3125651121712740312089674281244
:102AA3000B3B124445E5121247B53513125E2174F0
:102AB3002A120B3BE0C0E0E5121241263513F583E1
:102AC300D0E0F07514007423120B3BE0F516742468
:102AD300120B3B780C120AF0022B8E8510828511A3
:102AE30083125657121328850882850983A3EAF0B7
:102AF300A3EB122C6DA3A3126218122C67A2E6504B
:102B03000F850882850983A3A3A3A3A3E0D2E1F0E1
:102B1300E51570668508828509831244449003662F
:102B2300E0687003A3E0697051850882850983A377
:102B3300A3A3123A487510007810120887780C1274
:102B4300087BE516F51078101208877426120B3BE4
:102B53001206BC9003731206BC79007410120B3B6F
:102B63001261F8120D28740A1208968508828509E5
:102B730083A3A3A3A3A3E04405F074012514FC12CB
:102B83002C4B1213108A108B110514E5104511609C
:102B93004EC3E514950AE4950B5044E51475F0060D
:102BA300A4F8A9F0E51228F8E51339F9E8240FF59C
:102BB30008E439F509850882F583E41274C9E064F1
:102BC300016003022ADE7515018508828509837475
:102BD30001122C6D1250DAA3E8F0A3E9022AF5AA38
:102BE30012AB13121DF67812120883AD1674241259
:102BF3000B3BE0FCA917EEFAEFFB120BA2740212D7
:102C03000896803A8E828F83A3A3A3E0C0E0740367
:102C1300120B3BD0E01232EBC0E07404120B3BD03A
:102C2300E0F0E50A450B70097405120B3B74B9809B
:102C3300077405120B3B7410125E5E120D227408AA
:102C43001208967F100205ED8E828F8312565D8ED9
:102C5300828F83A3A3A3E0F922F583124E4B750E53
:102C630000780C22A3126241E0221274CDA32274D5
:102C7300E91203C474F312092F8A0C8B0D89168C85
:102C8300148D157424120B3B125555AA08FB121E02
:102C930008E9F513AA08AB09121E02E51370030233
:102CA3002EB8750E00800F8E828F83A3A3A3A3A3D8
:102CB300E0D2E3F0050E123E7DE0F8E50EC3984046
:102CC30003022EAFE5137003022EAFE50E75F00677
:102CD300A4F8A9F0E50828F8E50939F9E8240FFE76
:102CE300E439FF8E828F83A3A3A3A3A3E0A2E040D2
:102CF300C3750F00750A08750B00E5156003750FA2
:102D0300207C087D007900AA18AB1912171E8E8249
:102D13008F83E060379003B6E064017017E50FD24C
:102D2300E3F50F750B108E828F83122EDA12583C47
:102D330074FF8028430F0C750A0C8E828F83A312B5
:102D43002ED0A3A3A3A31268C7A38010E51660091E
:102D5300E50FD2E6F50F750A0A122EDAF0740212A5
:102D63000B3BE50FF0124130350DF583E0C0E07405
:102D730004120B3BD0E0F07405120B3B125E5C12A5
:102D83000CFE740C120B3BE06003022E92740812CB
:102D93000B3B1256BB8E828F83A3A3A3A3F07408AD
:102DA300120B3B124E6FE50AF0A3E50BF0124E1F18
:102DB300E514122C6860119003B6E0C0E0740812A9
:102DC3000B3B124E5FD0E0F07408120B3B123E9D9A
:102DD300A3A3A3122ECB124E16124EFD126932126A
:102DE3002ECB124E0DEAF0A3EB126464C0E0124E38
:102DF30003D0E0126528C0E07408120B3B1249555A
:102E0300D0E0126111C0E07408120B3B124949D0A3
:102E1300E0F07408120B3B122ED012493812302303
:102E2300122ECB242CF582E439F583124EFDE50CEA
:102E3300124795350DF583E0C0E0124930D0E0F03C
:102E43007408120B3B125659850C82850D83122E82
:102E5300C22428F582E43B125E21E50C124126359B
:102E63000DF5831268E2751200781012087F124183
:102E730030350D125E4DEA12608E3BF583125659C2
:102E83001217127403120896AA18AB19120D048EA6
:102E9300828F83A3A3A3A3A3E0D2E0F0740C120B4D
:102EA3003BE06003022CAA1513022CB77900AA0891
:102EB300AB09120BAE740D1208967F0F0205EDA33A
:102EC300A3A3A3124449EA22125663E822124449F7
:102ED300850C82850D8322A3122EDF22125DE3E887
:102EE300F0A3E92274EE1203C474E912092F8A08CD
:102EF3008B09890A8A828B83A3A3A3A3A3A3A3A376
:102F0300E0F9121DDE8A0C8B0DEA450D7003022FCA
:102F1300B2125521123B33E50A6003022FB77C043A
:102F2300850882850983A3A3A3A3A3A3A3A3E0F98D
:102F3300121490EE4F60788E828F83A3A3A3124462
:102F4300447406120B3BE8F0A3E9126227F8A3E0EE
:102F5300F97408120B3B124EF0C0E07410120B3BD5
:102F6300D0E0123023124444740E120B3B125E2342
:102F73007411120B3BE41256DEC8241FF582E438A9
:102F8300F58312531EC413135403FC70027C048E86
:102F9300828F83E0F9780C120883742059FD744002
:102FA30059F97402120907120BA2740212089674DB
:102FB300170268D27C08850882850983A3A3A3A38B
:102FC300A3A3A3A3E0F91214908B0FEA450F700398
:102FD300022F36EE4F60D8E50AF50B780B120887FF
:102FE300850C82850D83A3A3A3A3A3A3A3E0F50B61
:102FF300780B1208878A828B83A3A3A3E0FB8A82C0
:10300300850F83123B1B8A82850F83E0FA8E828FA2
:1030130083A3A3E0F91212867402120896022F3AD0
:10302300F0850C82850D83A3A3A3A3A3A3A3A3224B
:1030330074F71203C474FA12092FE9FE7C017D01AF
:103043007F0080037D000F125164E0F8EFC39850B6
:1030530028EF75F006A4F885F008A908EA28F8EB2C
:1030630039F9E82414125B06A2E050D8540C60D45A
:10307300E0A2E250D17C0080CD8A828B83A3A3A3FC
:10308300A3A3A3E0703DEDA2E0400574016E70338D
:103093008A828B83A3A3A3A3A3A374011247FDE096
:1030A300C0E07403120B3BD0E01247F5E0C0E074BC
:1030B30004120B3BD0E0F07405120B3BEC125E5E86
:1030C300120D227406024A2DC082C0837901120BAD
:1030D300AE025C5074F41203C4EA4B9011D1602227
:1030E300E4F08A088B09F50AF50B780812087B7A55
:1030F300027B00900315E0F912188C7404120896F1
:10310300800F7401F07A027B00900315E0F9121826
:1031130098800574021208967F040205EDC082C0F0
:10312300839011ECE075F005A4FCADF079007AD73B
:103133007B0712171E7A00800A1232C474FEF0A3B2
:1031430004F00A9011ECE0F8EAC39840EC025C50FA
:10315300C082C0837A007B0080037A010B9011EC5C
:10316300E0F8EBC3985056EB75F005A4F8ACF0EC1F
:103173001232DB7003A3E0F460E274D728F874071B
:1031830039F9E82403F850010988828983E024FF90
:10319300F0A3E034FF125966F9E84970BDEB75F00E
:1031A30005A4F8ECF974D728F8740739F9888289EB
:1031B3008374FEF0A30412352BE4F0809FEAA2E0AF
:1031C30050179080DD1206B87A047B00900315E057
:1031D300F912188C7404120896025C5074F71203E7
:1031E300C4EAFEEBFF9011ECE070030232BBEE2465
:1031F3001112516F70030232BB8E828F83A312565A
:1032030051120F08E96402600F8E828F83A3A3A378
:10321300A3A3E070030232BB7A0080271232E312C9
:103223003B1C1232C4E06C7003A3E06D7014EE24F7
:103233001212516FFC74D928F5827407125B096C62
:10324300607B0A9011ECE0F8EAC39840CF7A0080E3
:10325300010A9011ECE0F8EAC3985061EA75F005B1
:10326300A4F8ABF0EB1232DB7003A3E0F470E2746A
:10327300D728F874073BF91232E31260BEEAF0A3D1
:10328300EB1232EB88828983123524740C124EBA06
:103293007A04FB900315E0F912189EEA4B4C4D702B
:1032A300179080DD1206B87A047B00900315E0F9CD
:1032B30012188C74041208967901024A307900803E
:1032C300F9EA75F005A4F8A9F01232D02274D728D0
:1032D300F582740739F58322F91232D0E064FE22B5
:1032E300EE1261D43FF58322F01266B0E02274E857
:1032F3001203C474FC12092F7402120B3BE4F0A3F3
:10330300F0900330123B33851882851983E4F0A3D0
:10331300F0751401900360E0A2E350030233A71297
:1033230018B08A088B098C0A8D0B8A0C8B0D8C0EB6
:103333008D0F900332780C1209171234227810790A
:103343000C120AA250077A017B00023416850C1472
:10335300850D15850E16850F1778147910120355F0
:10336300A814A915901284E0C398E4995003E0804F
:1033730001E8F514123422780C7910120355E4F5A0
:1033830012F513780879101209AE900332780812F7
:103393000AD2801012341B125255FAEFFB1217C6D1
:1033A300AE08AF09EE4F60638E828F83A3A3A3E0C1
:1033B300F8E514C3985029EE2403F582E43FF5831E
:1033C300A814E0C398F060217402120B3B1245B4B9
:1033D300124EBFEEF0A3EF126116FEA3E0FF80C40E
:1033E3008E828F83A3A3A3E4F08E828F8312555121
:1033F3008518828519831256D98E828F83A3A3A33E
:10340300A36091125DDB12592C808C7402120B3B6A
:103413001256597404022C431244499003302290EB
:103423001282E0F510A3E0F511E4F512F51322740E
:10343300F21203C48A0A8B0BE9FE7A007B00900325
:10344300301255559003301256D9601E0A850882F2
:10345300850983A3A3A3A31256D9600E0AEA7001B8
:103463000B88088909E8450970E3901285124445E1
:10347300C3EA98EB9940030235217A067B001217C1
:10348300C08A0C8B0DA80CA90DE8497003023521E5
:1034930088828983E50AF0A3E50BF0EE88828983AD
:1034A300A3A3F0901284125B60A3123524A3E4F06B
:1034B300A3F09003301244B3600F8508828509831B
:1034C300A3A3A3A3125E23801F900330125E239055
:1034D3000360E0A2E340111218B0EAF8EBF9ECFA4A
:1034E300EDFB900332120B0C900360E0A2E3502E2D
:1034F3007A087B00900315E0F912189EEA4B4C4DB5
:10350300701C901282126F07780812087B7A087B6E
:1035130000900315E0F91218927404120896022819
:103523006EA3A312352BA322125AEBA3A322C082AC
:10353300C083E99011D2F090032A74F6F0A3740BC0
:10354300F090032C7408F0A3740CF090032E741AFB
:10355300F0A3740CF0025C5074F71203C4EAFEEBA0
:10356300FF8908EE4F700312136A9003361256D97F
:103573007008900336802212444588828983A3A36E
:10358300A3A3A3A3A3A3A31244B388828983A3A35E
:10359300A3A3A3A3A3A3A370DEEEF0A3EF1235B2FC
:1035A300A3A3A3E4F0A31235B2E508F0024A301254
:1035B30035B6221235BA22F08E828F83A3A3A3A33A
:1035C300A3A32274F71203C4900336800D8E828F57
:1035D30083A3A3A3A3A3A3A3A3A3123B33EE4F608D
:1035E300348E828F83A3A3A3A3A3A3A3E06970DD77
:1035F3008E828F83A3A3A3A3E06A7003A3E06B70FF
:10360300CC8E828F83A3A3A3A3A3A3E06C70BEEE8F
:10361300FAEFFB80047A007B00024A3074F712034E
:10362300C4900336123B33900336122EC6687002E1
:10363300EB69701EE0C82409F582E438F58312446F
:1036430045900336125E23900336123B33802712D4
:103653003B26EE4F60208E828F83A3A3A3A3A312E6
:103663002EC2687002EB6970E68A828B83A3A3A3E0
:10367300123683125E231217C6EEFAEFFB024A30AC
:10368300A3A3A3A3A3A3123E91A3A3A3A3A32274BF
:10369300F01203C474FA12092F8A088B098A828BE9
:1036A30083A3A3A3A3A3A3A3A3E060336401602F15
:1036B3008A828B83125659120F08E9702285088279
:1036C300850983A3A3A3A3A3A3A3A3E06403701403
:1036D300740412090FAA08AB09120C98E970167941
:1036E3000202388E850882850983124445740412C8
:1036F3000B3B125E231266A32434125D961217C08D
:103703008A0A8B0BAE0AAF0BEE4F700302388C7C28
:10371300347D00790012171E74021209078508828E
:10372300850983A3A3A3A3A3A3A3A3A3E0F91212CD
:10373300C87402120B3BE0C0E012389DD0E0F0EEFB
:10374300242EF50AE43FF50B7403120B3BE0850AC4
:1037530082850B83F07901EEFAEFFB120BE4850807
:103763000C85090D750E00780C12087F7C1E7D00F8
:103773001238A51217127403120896EE2432123C63
:103783004B2434F8E43FF98A828B83125E23E508E5
:103793002411F8E43509F9E8FCE9FD8C828D8312E4
:1037A3004E7B2430125E1D123C431271C012087FFF
:1037B3008C828D831238B412565912171274031265
:1037C30008967404120B3B123E8D125E239003166F
:1037D3001238ADA3A3A3F0900316E004F01218B0BF
:1037E3008E828F83124EB3242C12415F750D008598
:1037F3000A82850B83E0780C1209E98A828B83E5C0
:103803000CF0123893E50C124EBFE4F0E5082415D2
:103813001266A7A2E074015007120B3B74018004E7
:10382300120B3BE4F0EE2429125548AA18AB1912E7
:1038330012B0E924FE850882850983F0EE2430F86E
:10384300E43FF9E8FCE9FD1238BC12027CE88E8201
:103853008F83A3A3A3A3A3A3A3A3F01238BC120231
:103863007C8B09EA4509600F8E828F83A3A3A3A3F0
:10387300A3A3A3A3E004F0EE242012516F44081283
:1038830041AB1217727900800279107406023C7FF3
:10389300EE242BF582E43FF58322EE12608E3FF592
:1038A3008322EE240BFAE43FFB22126208A3A3A3B4
:1038B30022123B208A828B83228C828D831250DEDC
:1038C300E0FA7B002274F41203C4EAFEEBFF121841
:1038D300B0124EF9901278E0F8EE242D12516FC316
:1038E300984003023A2812416B7013EE242D1251B3
:1038F3006F04123C70E0C0E0123893D0E0F0EE2485
:103903002A12516FFC7900800109EE242E12516FA7
:10391300F8E9C3985026750801750900E97808127B
:1039230009E912416B550860E0E92CFC7508017543
:103933000900E978081209E9E04508F0EE242912A4
:103943003A3AEE2430F582E43FF583EC8AF0A4F8AA
:10395300ABF0E42BF9E098F8A3E099F9C3E89AE90E
:103963009400EE4034242912516FF812416B602FFA
:1039730012389D123A48A3E4F0EC704AEE24201268
:10398300516F4420124EF4C0E012518DD0E0F0EE9E
:103993002432123A3AA3E0805212389474FFF09022
:1039A3000356E0FA90127B123A3FABF075F064A431
:1039B300FAADF075F064EBA42DFB8E828F83A3A385
:1039C300EAF0A3EB80B2EE242012516F54DF1251C0
:1039D30088ECF0FAEE2429F582E43FF583123A3FAE
:1039E300FAABF0EE124DFD3F124181FB12650CEA7A
:1039F300F0A3EB126230C0E0EE2425F582E43FF53C
:103A030083D0E0124E8BE8124EBA9003381256D987
:103A1300600BECF91270D8121F45E970171238A524
:103A2300120C6E800F7BE9123C61121280EEFAEFEA
:103A3300FB120BF002311B124E33FA22E0F508EAB7
:103A43008508F0A422126208A3F02274F41203C4BE
:103A5300900336123B331218B08A0A8B0B78FF7926
:103A6300FF8020E0C39AFCA3E09BFDC3EC98ED9993
:103A7300500E8E828F83A3A3E0C39AF8A3E09BF931
:103A8300123B26EE4F605C8E828F83125659E50AF5
:103A9300C39AFAE50B9BFB8E828F83123B1AC3EA10
:103AA3009CEB9D8E828F83A3A340B8A3A3A3A3E023
:103AB3006402701AEE240B12416E60091241461221
:103AC3005659121736EEFAEFFB120BF08007EEFA97
:103AD300EFFB120BFC7A017B009011D2E0F9121775
:103AE30072802974FF68700374FF69601F880889F6
:103AF30009E4F50AF50B780812087B7A017B00903C
:103B030011D2E0F912188C740412089602311BA327
:103B1300A3A3A3A3A3A3A3A3A3123B2022E0FCA3D9
:103B2300E0FD228E828F83A3A3A3A3A3A3A3A3A3B6
:103B3300E0FEA3E0FF2274F01203C48A088B09ECB1
:103B4300FAEDFB890A7C011266A3F9120BEA8A0CCF
:103B53008B0DAE0CAF0DEE4F7003023C41E50A60D6
:103B630003023C41123C43123C59686003023C414E
:103B7300123C43E0FAEE242E12516FF8EA28FAE4DD
:103B83003400FB8E828F83A3A3A3A3A3A3A3A3E0E9
:103B9300F8EA98EB9400C365D033401CE50824147D
:103BA3001266A7F470127B00123C61121280EEFAC7
:103BB300EFFB120BF0023C41E50824141266A7F454
:103BC3007041EE242B123C4B242EF8E43FF9E8FC21
:103BD300E9FD7508FF7509008C828D83E078081272
:103BE30009E98A828B83E508123C70E508F08C8230
:103BF3008D83123C5928F0EE242DF582E43FF583A2
:103C0300E4801BE5082414F8E43509F9E0C0E01268
:103C13003C75D0E0125962C0E0123893D0E0F01244
:103C230018B08E828F83124EB312389E123C55A366
:103C3300124EBA7A01FB9011D2E0F9121772803F4B
:103C4300E5082413123E8522F8E43FF9E8FAE9FB7C
:103C5300EE2212620822E0F8EE125AF1E022EE247C
:103C630022124E33FAEE2414124E33F922F0123C90
:103C73007522EE242CF582E43FF583221208967F09
:103C8300080205ED74EC1203C474FE12092F8A0AAC
:103C93008B0B8C0E8D0F89108A828B83A3A3E0F983
:103CA3001212A48A088B09AE08AF09EE4F70077A87
:103CB300007B00023E697A127B001217C08A088BD0
:103CC30009EA45097003023E657C127D0079001202
:103CD300171EAA18AB19850A82850B83A3A3E0F9E3
:103CE3001212C8E508240FF50CE43509F50D74012B
:103CF300120B3BE0850C82850D83F07902AA08AB99
:103D030009120BE4850E82850F83123E9D123EAB92
:103D130012411F12620FF07512FF751300850C829A
:103D2300850D83E078121209E9126932E51212490E
:103D3300611270D6E0C0E0123E7DD0E0F012413C4B
:103D4300F50CE508240D126936E50CF0E50A12417D
:103D53004E850CF0A4A9F02427FAE439FB1217309E
:103D63008A0C8B0DAE0CAF0DE508126424EEF0A3A4
:103D7300EFF0EE4F7003023E588E828F83741A1257
:103D83004EBA8E828F83A3A3F0A3123EB1123E8D4F
:103D9300125E23AC0EAD0F1265161212C2850A8293
:103DA300850B83A3A3A3E0C0E0125310D0E0F090EF
:103DB3000373124E7B2410123EA5124E69350B126B
:103DC3004E79125E40E8F0A3E9123EB1A3A3A3A388
:103DD300124E7B2412125E1D850A82850B83A3A3D8
:103DE300E0C0E0123E73D0E0F0E50A1247B512419D
:103DF3005AE0C0E01261C7D0E0F07416120B3B1218
:103E0300643EC0E0126691D0E0126222C0E0126408
:103E13002AD0E0126447C0E0126434D0E0124E802E
:103E2300E510F07418120B3B120B18EE241AF582EE
:103E3300E43FF583120B0CEE2427F8E43FF9EE245C
:103E430022123EA5125D8E12415AE0C0E012651E99
:103E5300D0E0F0800DAA08AB09120BF075080075CD
:103E63000900AA08AB0974021208967F0C0205ED3B
:103E7300EE2414F582E43FF58322123E8122E50805
:103E8300240BF582E43509F58322123E9122126553
:103E9300C08E828F83A3A3A3A3221250DEA3A3A366
:103EA300A322F582E43FF583124EEAE50A22F08568
:103EB3000A82850B83A3A3A3A3A3A32274ED1203F6
:103EC300C48A0A8B0B8C108D118912750900EA12B2
:103ED300414EF5089003381256D9600EA9081270A6
:103EE300D8121F45E9600302411A7C0285108285BE
:103EF3001183125659E50A12411FE0F9120BEA8A9F
:103F03000C8B0DAE0CAF0DEE4F7054850A82850BF2
:103F130083A3E0A2E0400302411A7415120B3B1283
:103F230006B87417120B3B1206BCA912AC10AD11E4
:103F3300AA0AAB0B120C0E74061208968A0C8B0D90
:103F4300AE0CAF0DEE4F700302411A8E828F83A326
:103F5300A3A3A3A3A3A3A3E5081241AB121772A8BB
:103F6300088E828F83A3A3A3A3A3A3A3A3E024FF09
:103F7300FAE434FFFBEA684B7003750901EE240B86
:103F830012416E70030240CF850A82850B83A3E042
:103F9300A2E05003750800124198E5089AE49BC318
:103FA30065D033401CE0F8EE240E12516F28F075F3
:103FB3000CFF750D00E8780C1209E9125C82E50C20
:103FC300F0E50A124126350B122C5C12087FE50A34
:103FD300124132350B125E4DEE240D12516FF50C6A
:103FE300E508850CF0A4FAABF01241461256712491
:103FF30022F582E438124181FB121712740312086E
:1040030096750C01124173780C1209E912516C4533
:104013000CF0E509A2E05063EE240C12415F12415B
:104023007304780C1209E98A828B83E0450C124EE3
:104033009E85080C850CF0A4F8A9F012413CFCE81D
:104043002CFCE439FD1241461256712420F582E41A
:1040530038F583ECF0A3ED124ECBF4701EEE240B77
:10406300F50CE43FF50DEE1241323F12418A12176F
:104073003C850C82850D8374FF80501218B0124E5C
:10408300F9900356E0FA90127BE0F50CEA850CF008
:10409300A4FAABF0F8EBF9901278E0F50CE8850C94
:1040A300F0A4F8ACF0850CF0E9A42CF9EA28F8EBBD
:1040B30039F9E875F064A4F8AAF075F064E9A42A64
:1040C300F98E828F83A3A3E8F0A3E9F0A808124135
:1040D30098EA24FF1AEB34FFFBEA687001EB600EE9
:1040E300EE240C12416E6006E509A2E05029E50AB0
:1040F300124153ECF012516CC0E0E50A2414F5822E
:10410300E412415AD0E0F0AC0AAD0B851082851160
:1041130083125659120C5C7F0B0205ED1247951260
:10412300415A2212412A22240EF582E422E50C127E
:104133004136222410F582E422E50A124136124167
:104143005AE022EE1241363FF58322124153E02218
:1041530012478F12415A22350BF58322F8E43FF9B7
:10416300E8FAE9FB750CFF22EE242B124E33F422FE
:10417300750D00124E30F5F0E50884E5F022F58365
:10418300E02AFAA3E03B22F583125663850C82856D
:104193000D83E0F922EE240E124E33FC124E30FA58
:1041A300EC2AFAE43400FB22F07A017B009011D26E
:1041B300E0F922C082C0839011D2E0F912173C02C9
:1041C3005C5074F41203C48A088B09EB5480703B6F
:1041D300EAA2E05053120C02E5086401FAAB09802D
:1041E3004B8E828F83E06401701A12423E1206B82E
:1041F300124232120883EE2412124246120C147435
:1042030006120896EEFAEFFB1217369011D2E0F978
:104213001217488A0A8B0BAE0AAF0BEE4F70C2AA75
:1042230008E5096480FB80047A007B0002311BEE01
:10423300240FF50AE43FF50B780A22EE12478F3F6D
:10424300F58322124E33F9EE2402FCE43FFDEE2403
:1042530019FAE43FFB2274F11203C4890A8A088B1A
:10426300098A828B83125659120C2C8B0DEA450D49
:10427300600579B8024301120C4AE9F890251DE460
:1042830093F9E8C399400479B280737A157B0012DD
:1042930017C08A0C8B0DAE0CAF0DEE4F7004791066
:1042A300805C8E828F83E4F0A312623CA3E50A1242
:1042B300645712087F7C127D00EE2403FAE43FFB6F
:1042C300121712740312089690033A1256D99003E8
:1042D3003A7006EEF0A3EF801FE0FAA3E08003E854
:1042E300FAE9FB8A828B831256D970F3EEF8EFF961
:1042F3008A828B83E8F0A3E9F0120C50790002580C
:1043030047C082C08390033A80048C828D83123B22
:104313001CEC4D60288C828D83A3A3E06960057437
:10432300FF6970E68C828D83A3A3A3E06A7003A365
:10433300E06B70D6EC2403FAE43DFB80047A007B47
:1043430000025C5074F71203C4E9FD74FE6D70043F
:104353007C0180027C0090033A80096D70027C012D
:10436300888289831256D9601F88828983A3A3A375
:10437300E06A7003A3E06B70E7ECA2E088828983B4
:10438300A3A3E050D6F9800279FE024A3074F612F4
:1043930003C4E9FF7E0090033AE0FCA3E0802D8C88
:1043A300828D83A3A3E06F701E8C828D83A312433F
:1043B300D925E0F8E433F9EA28F582EB39F583E50A
:1043C30008F0A3E509F00E125561FCE9FDEC4D7010
:1043D300CEEEF902482FA3A3125559EE2274F71219
:1043E30003C4E9FE90033A1244457C007D00800B30
:1043F300E8FCE9FD88828983124445E849603D88E9
:10440300828983A3A3E06E70E788828983A3A3A331
:10441300E06A7003A3E06B70D7EC4D8882898370E8
:104423000812565990033A8003124A25125DB5FAD1
:10443300E9FB1217C6120C50790180027900024A77
:1044430030A3124449221265C02274F51203C489B1
:104453000A90033A1256597508007509008015121F
:1044630050DAE8F0A3E9124ECBFEA3E0FF1217C621
:10447300EEFAEFFBEA4B602B8A828B83A3A3E06502
:104483000A7012E50845098A828B8370D21244456B
:1044930090033A80CD8A088B098A828B83E0FAA342
:1044A300E080D0120C5080031208967F030205EDC2
:1044B300125663EA4B22C082C083790090033A808C
:1044C30001091256598A828B83E582458370F20271
:1044D3005C5074F51203C474EB12092F851882859E
:1044E3001983E4F0A3F090033AE0FEA3E0807E8E0C
:1044F300828F83A3A3E0C0E07402120B3BD0E012CF
:10450300583CA982AA8389088A09750A0078081287
:10451300087F7C127D007406120B3BAA82AB8312C8
:104523001712740312089674021208FF8808890987
:104533007808120883750813750900780812088330
:104543007404120B3B12556575F013A4F8AAF075A9
:10455300F013E91245A5121844740412089685183D
:10456300828519831245B41265B5E8FEE9FFEE4F63
:1045730060030244F2A818A9198808890978081267
:10458300088375080275090078081208837C007D8A
:10459300007A427B001218447404120896741502C0
:1045A30044ABA42AF9E82402FCE439FD7A427B00F7
:1045B30022E02401F0A3E034002274F61203C48C39
:1045C300828D83A3A31247EBF0EA2417F582E43B21
:1045D300F583E0C0E01247BBD0E0F012479B1244E2
:1045E300451247A51247EBA3F0A3F0EA241FF58277
:1045F300E43BF583123B33EC124E693DF583EEF059
:10460300A3EFF0EA125C7C3BF5831247CCA3A3A390
:10461300A3A3A3EEF0A3EF125962FE8C828D831243
:10462300481574035EFEC394034003024782EE60A1
:104633000574026E70798C828D83E0540CFE740CC9
:104643006E70030246EFE0A2E4400D88828983E0A6
:104653008C828D83A312481D74086E60030246EF9B
:104663001247AD7401F08A828B83A3A3A3A3A31281
:10467300583670148C828D83E0440C1247F5A3A343
:104683001247CCEEF0A3EFF08C828D83E0A2E440DE
:104693001E1247DA1248065001091247DAA3A31281
:1046A3004806500109888289831247C31248158836
:1046B300828983E0C0E0EC1247953DF583D0E01298
:1046C30048158C828D83E0A2E7507888828983E045
:1046D300FE8C828D8312481D74FC5E700C8C828D5F
:1046E30083A3E054036403701B0247821247ADE4C3
:1046F300F0740C6E60030246691247DA12480850E0
:10470300870980848C828D83A3E054036038888278
:104713008983E0C0E0EC12478F3DF583D0E0124877
:104723001E8C828D83E054036402701A888289830D
:10473300E0C0E0EC2414F582E43DF583D0E01248B8
:104743001E8003A3E4F0EC1241263D125E21EC240B
:1047530010FEE43DFF12479BE0F5088E828F83E055
:10476300C3982508F508F0EA2417125DD1C395080C
:10477300C0E01247A5D0E0125962C39508500A124F
:1047830047A5E4F01247BBE4F002482F2413F58257
:10479300E4222411F582E422EA241DF582E43BF5A8
:1047A3008322EC125C7C3DF58322EC1247B53DF588
:1047B3008322240CF582E422EC1241363DF5832258
:1047C300E08C828D83A3A3A322E0FEA3E0FF8C826F
:1047D3008D83A3A3A3A32288828983E0F508A3E0A2
:1047E300FFE5088C828D8322E4F08C828D83A3A362
:1047F300A3221247FDA3A3A3A322F08A828B83A340
:10480300A3A322A3A3A3A3A3A3F0A3EFF0E82402EB
:10481300F822124825A882A98322A312482508A9B1
:104823008322125AEBA32274021208967F02020516
:10483300ED74F41203C474F312092F8A0A8B0BEC80
:10484300FEEDFF8E828F83E0540CF508E0A2E75063
:1048530006E508D2E7F508E508D2E1F5081258366F
:104863007006E508D2E4F508E0A2E55006E508D2B3
:10487300E5F5087C087D007900AA18AB1912171E0C
:104883007402120B3BE508124961C0E07403120B7A
:104893003BD0E0124EBFE50AF0A3E50BF07405121E
:1048A3000B3B125E5C120CFE740C120B3BE0707837
:1048B3007408120B3B125671125D8E38126247C098
:1048C300E07408120B3B124955D0E0126111C0E0AD
:1048D3007408120B3B124949D0E0F07408120B3BE9
:1048E300125E54124938124EF4124EA6241112517C
:1048F3006FC0E0124930D0E0F0EE241412516FC0C3
:10490300E07408120B3B1256712435F582E438F536
:1049130083D0E0124E96C0E07408120B3B124E5344
:10492300D0E0125E5E120D04740D023118E8124DD0
:10493300FD39F5832212565DE8242AF582E439F520
:1049430083EAF0A3EB221261072427F582E438F50A
:1049530083221261072426F582E438F5832212624A
:104963003CE02274F71203C47E008A828B83A3A3E4
:10497300A3A3A3A3A3A3A3E064046003024A1212A4
:1049830056F2E06003024A12124A163B1256D760EF
:104993007E88828983E054037075E8240C125B06D9
:1049A300FA8C828D83A3A3E0FBA3E0CB1247953B54
:1049B300F583E06A705988828983A3A3A3A3A31212
:1049C3004A21E06A7003A3E06B70448882898312F2
:1049D3004A21A3A3125B1B240612516F6A7003A31F
:1049E300E06B702B88828983A3A3E0F88C828D838C
:1049F300A3A3E0F9A3E0F5838982A3A3E068600D94
:104A03008C828D8312531C540C640470027E01EE5D
:104A1300F9801AEA124A1B22240FF582E422A3A387
:104A2300A3A31256638C828D83221208967F010200
:104A330005ED74F61203C474FC12092FEAFEEBFFB2
:104A4300ECFAEDFB8A828B83A3E054036016900398
:104A53002C1256D960597900EEFCEFFD1270D81272
:104A63001F45804B851882851983EEF0A3EFF07400
:104A730002120B3B124EFDAC18AD197A627B0C127D
:104A83000E5A8A088B09A808A909E8496021888277
:104A93008983A3A3A3A3A3A3A3A3A37406F07A0068
:104AA3008882898312567112609DE0F9120DC474D5
:104AB3000402482C74F21203C474F312092FEAFEA1
:104AC300EBFF8E828F83A3A3A3A3A3A3A3A3A3A379
:104AD300E0F50A9011D1E0700579BA024DF8750836
:104AE30001750900750C00750D007C087D007900C7
:104AF300AA18AB1912171E7405120B3B7401124E40
:104B0300D2540460127402120B3BE0D2E6124ED26E
:104B130054087003750803E0541060067440450898
:104B2300F508E0540860227402120B3BE044C01203
:104B33004ED25420600A7403120B3BE0D2E080088B
:104B43007403120B3BE0D2E1F0EE241512516F1205
:104B53004E3B7003740169700674084508F5088EAE
:104B6300828F83A3A3A3A3A3A3A3A3E07016120E10
:104B7300AE851882851983124EFD7402120B3BE039
:104B8300D2E2802C640F70107402120B3B124EDAC7
:104B930074044508F508807B8E828F83A3A3A3A3A7
:104BA300A3A3A3A3E064028E828F837006122EDB7D
:104BB300F08060A3A3A3A3A3A3A3A3E06403700D46
:104BC300AC18AD19EEFAEFFB120C9880468E828F6B
:104BD30083A3A3A3A3A3A3A3A3E0640170359003BA
:104BE300B6E060107402120B3B124EDA75091075B1
:104BF3000AFF80187402120B3BE0440C124EBF7480
:104C0300FDF0A374FFF074044508F5088E828F83CA
:104C1300124E47EE241512516FA2E0503F74021258
:104C23000B3BE0540C701B8E828F83125659121D5E
:104C330012E9700579BB024DF87402120B3BE0D206
:104C4300E5F0EE241512516FA2E050107402120B1E
:104C53003BE0540C64047004E0D2E5F0EE2411123E
:104C6300516FC0E07404120B3BD0E0125E5E120C75
:104C7300FE740C120B3BE06003024DF17408120B3F
:104C83003B124E6FE508F0A3E509F0EE241812512C
:104C93006FC0E0124E1FD0E0124E80E0C0E07408F7
:104CA300120B3B12567112478F38F583D0E0124E28
:104CB300F4640170119003B6E0C0E07408120B3B7A
:104CC300124E5FD0E0F07408120B3B124E7B241798
:104CD300123A3AE8124E16EA124EBAEE2415FAE4E4
:104CE3003FFB8A828B83123B1CE8124E0DECF0A330
:104CF300ED124E8BE0C0E0124E03D0E0124ECB1209
:104D03004E3B700374016970137408120B3B125607
:104D1300BBFAEE241D12516FF9121F2E8E828F8360
:104D2300A3A3A3A3A3A3A3A3A3E0C0E07408120BAC
:104D33003B124955D0E0F07408120B3B124949E588
:104D43000AF07408120B3B1255652428F582E439E6
:104D5300F583E50CF0A3E50D124E9EFAA3E0FBE804
:104D6300242A124EAD240F12516F124EA62417128D
:104D7300516FC0E0E82433F582E439F583D0E0F0E5
:104D8300124E29C0E07408120B3B124E53D0E0F0D0
:104D9300EE241A12516FC0E07408120B3B125671C5
:104DA300124DFD38F583D0E0124E961228081208F2
:104DB3007F12641C123B1C740B120B3B1261E4FA4E
:104DC300A3E0FB1217127403120896EE2415125176
:104DD3006F544060129003461256D9600AAA18AB6A
:104DE300191270D8121F45AA18AB19120D04740CAE
:104DF300120B3BE0F9740D02286B2432F582E42296
:104E0300E82420F582E439F58322241EF582E4396F
:104E1300F58322241CF582E439F58322E82412F574
:104E230082E439F58322EE241B124E3322EE240F43
:104E3300F582E43FF583E0225480F8A3E05401F9BE
:104E430074806822124E4B22E0F50CA3E0F50D228C
:104E53001261072434F582E438F5832212610712C4
:104E63004E6938F583222415F582E422125569121E
:104E73004A1B39F58322F583124449EE22F0EE24CE
:104E830019F582E43FF58322F0EE241CF582E43F1A
:104E9300F58322F0EE2413124E3322F0EE240D128A
:104EA3004E3322FAA3E0FBE8242CF582E439F583A0
:104EB300EAF0A3EBF0EE22F0A3E4F022124EC322B9
:104EC300F085188285198322F08A828B83E022F091
:104ED300EE2415124E3322E0D2E31265B9124EE4EA
:104EE30022851882851983E8F0A3E9F022E8F0A36C
:104EF300E91260F1E0228E828F83EAF0A3EBF022C5
:104F030074F71203C47E638A828B83E0600C790595
:104F1300120D8EE9F87456C398FE90035EE0600CA0
:104F2300F9120D8EE9F8EEC39824F2FE024A1274C8
:104F3300F61203C474FE12092F8518828519831291
:104F43004EFDE9FEECFAEDFB9004CA1256D960352A
:104F5300A818A9198808890978081208837D01749B
:104F63000E120B3BE0FCEEF99004CA1260B9121F5B
:104F73004574021208968B09EA450960047900809A
:104F83000679B2800279B602482A74F71203C4E99B
:104F9300FE9003221256D9601F7409120B3BE0F5F1
:104FA300087808120887EEF99003221260B9121FDD
:104FB300457401120896800279B6024A3074F712DA
:104FC30003C48908ECFEEDFF79B5E508245E601F94
:104FD30014600624F86033803C9004CC1244B36020
:104FE300349004CC1260B9121F45124EF9802490FC
:104FF3000324123B1CEC4D601CEEFCEFFD900324DC
:105003001260B9121F45E9F9800B9003201261F871
:105013001218C87900024A3074F71203C4E9FE7902
:10502300B574AB6E700B9003201256591218C879E1
:1050330000024A3074F21203C48A088B09ECFEEDB5
:10504300FF750A01900366E065087004A3E0650933
:105053007014120EA88A088B09AC08AD09EEFAEF9A
:10506300FB1218C8802A120EB48A0C8B0DE5086552
:105073000C7004E509650D7009EEFAEFFB120EBA28
:10508300800EEEFCEFFDAA08AB09121EFEE9F50A3D
:10509300A90A02286E74F21203C4EAFEEBFF8C081D
:1050A3008D09750A01120EA88A0C8B0DAC0CAD0D7F
:1050B300EEFAEFFB1218C2E96401700B900366125B
:1050C30050DA125E23800EAC08AD09EEFAEFFB1244
:1050D3001EF8E9F50A80B91250DE221265C0850870
:1050E300828509832274F61203C4EAFEEBFF7A0D6C
:1050F3007B001217C0EA4B6065EE24241265E0F0D2
:10510300EE24251265E0A31251881265E6A3A312CB
:10511300644C125173F0EE242A12517C1252512422
:105123002C12517C12524F242EF582E43FF5831248
:105133005173A3A3A3A3A3F0EE243312516FC0E0D2
:10514300125164D0E012624B12517FA3A3A31252F7
:105153004F243212516FC0E01256F2D0E0F00248F1
:105163002FEA1261D43BF58322EE240C124E332234
:10517300E08A828B83A3A3A322124E33F8A3E0F920
:105183008A828B8322F012518D22EE2426F582E44B
:105193003FF5832274F41203C474FE12092FECFE4C
:1051A300EDFFEE241612516F64057010EE2406FC19
:1051B300E43FFD120C92E97003025244AC18AD199E
:1051C300126516121D188518828519831256D96027
:1051D3006C8E828F83E064017059E875F009A4F83E
:1051E300AAF075F009E9A42AF9747528F874FF394F
:1051F300F9E8FAE9FB8A828B837808120AF0EE1247
:105203005249120AB24028851882851983124E7BAF
:10521300125311125255125249120AF09080ED782E
:1052230008120A488A828B837808120AD2800A7984
:10523300A28010EE240F125E1D7900800679A180F2
:105243000279C80231161266B1780822A3A3A3A378
:10525300A3A3124EEAEE2274F01203C48A088B0948
:10526300ECFEEDFF125310E4F0A3F09080B1780C44
:10527300120AF01266AC780C12097070030253081C
:10528300EE240E12516F6401703678B390035DE023
:10529300702A90038FE064017022EE241112516F83
:1052A300F9120D768A088B09A808A909EE240F12B2
:1052B3005E1DE84960047800800278A1880A80486E
:1052C300E07017120CA4E9F50A603D8E828F83A368
:1052D300A312531C5403700E802E64027015120C1B
:1052E300A4E9F50A6022EEFCEFFDAA08AB09121D42
:1052F300248008E064037008120CA4E9F50A80080E
:10530300750AA18003750AA3A90A023C82EE124A18
:105313001B3FF583228A828B83A3A3125E8A2274A6
:10532300F01203C474F512092FEAFEEBFFEE240A10
:10533300F508E43F850882F5831255551255297403
:105343000312090F8E828F83125659120C92E97041
:1053530003025411740112090F7403120907121D79
:10536300187401120B3B1256D97003025411E875DD
:10537300F009A4F8AAF075F009E9A42AF9747128D0
:10538300F874FF39F9E8FCE9FD1268DAE4F0041275
:105393000B3B124445E508124A173509125E218C6E
:1053A300828D83120B18125535120B0C9080ED78F9
:1053B30008120AF08C828D837808120A6E8C828D13
:1053C300837808120AF09080BD780C120AF07808EE
:1053D300790C120355E50C450D450E450F702F74DE
:1053E30001120B3B12556575F009A4F8AAF075F08C
:1053F30009E9A42AF9747928F58274FF39F58374CD
:1054030001F07A007B089010D2E0F912177212555E
:105413003DE02406FCA3E03400FD8E828F83125608
:1054230059120C928508828509831256CE70521246
:10543300568F1218C2E9701D120EA88A088B09AC88
:1054430008AD099003201256591218C2E9700612CA
:105453000D16E9602C8E828F83123B128E828F830E
:10546300125659121D2AE960138E828F83A3A31249
:105473005669124A1738F583E4F0A3F0125945E44C
:10548300F01256C0600302551C8E828F83A3A3A320
:10549300A3A3A312555190035DE0707290038FE0B4
:1054A3006401706A750A3A750B00780A12088374EE
:1054B300021208FF880A890B780A1208837C017D8F
:1054C300007A007B00120FB67404120896E9703B51
:1054D3001268DA7401124EBFE0C0E0E5082411122D
:1054E3006936D0E0F0125521743A124EBA9003484F
:1054F300120B18125535120B0C9080ED7808120A16
:10550300F09003487808120A6E8003125529125648
:10551300C07006125C8274A1F0740B023C7FE50834
:10552300240F123E8522E508240F123E85E4F0A3E2
:10553300F022E5082412123E8522EE240A12554871
:105543008882F58322F8E43FF98808890922A3A316
:10555300A3A312555922E0F508A3E0F509228C8292
:105563008D83125569221265C0E82274F61203C4B2
:10557300EAFEEBFFEE240A1255487A187B00121755
:10558300C0850882850983EAF0A3EB1256EDE8494A
:10559300700302562FEEFAEFFB120CB01256C060E6
:1055A300741256AD64018E828F83A3A3A3A3A3A316
:1055B300700712567F740E80201256D9700F125640
:1055C3008F1218C2E97006120D16E960071256759C
:1055D300740D8005125675740512624B54036401F1
:1055E30070071256367405800B90035EE0C0E0121C
:1055F3005636D0E01256DEF5838882A3E0F9120D09
:105603008E8508828509831256712417F582E43842
:10561300F583E9801A850882850983125659121782
:10562300C6850882850983E4F0A380031260A4F091
:1056330002482F8E828F83A3A3A3A3A3A3A3A312A2
:10564300564622A3A3125E8FA3228E828F83A3A327
:10565300A3A3A3A3A3A312566322A3A3A3A3A3A3B6
:10566300E0FAA3E0FB22A3A3A3A3A3A3A3A3126132
:1056730007228E828F83A3A3A3A3A3A3A3A3A3A37E
:105683001261072416F582E438F583229003201271
:105693003B208E828F83A3A3A3A3A3A3A3A3A3A32C
:1056A300E02406FAA3E03400FB228E828F83A3A3B7
:1056B300A3A3A3A3A3A3A3A3125957E0228E828F6C
:1056C30083A3A3A3A3A3A3A3A3A3A3126107240F49
:1056D300F582E438F58312556949221256E2221203
:1056E30056E6221266BEF8A3E0221256E2F922EA37
:1056F3001247B53BF5832274F11203C48A0A8B0B5C
:105703008C088D097A187B001217C08A0C8B0DAE9A
:105713000CAF0DEE4F700302582F120EAE8A0C8B96
:105723000DA80CA90DE50824151266A7687003A33C
:10573300E0698E828F837004740280027401F0E545
:1057430008240DF8E43509F988828983E0FAC3E473
:105753009AFA95E0FBE5081241263509124181FBCF
:105763008E828F83A3A3A3A3125D9D8E828F83A3B7
:10577300A3F0EEFAEFFB120D408508828509831230
:10578300583670098E828F83A37405800690035E5A
:10579300123C55F0EE2417F8E43FF9880C890D8E7E
:1057A300828F83A3E0F9120D8EE9850C82850D8328
:1057B300F0EE2416F8E43FF9E508240EFAE435097F
:1057C300FB888289831260D2E5082410FAE4350944
:1057D300FB850C82850D83E0FC88828983E0F88A4F
:1057E300828B83E0C398C39CF812583CF0EEFCEF25
:1057F300FDAA0AAB0B120CAAE9F5088E828F83E08F
:1058030064027011120EA88A0A8B0BAC0AAD0B123C
:1058130065161218C8E508700AEEFAEFFB120D4C74
:10582300E9F508EEFAEFFB1217C68003750810A915
:10583300088011E05403640122125840221262418D
:10584300A3A3A3227F070205ED790102086374F481
:105853001203C4EAFEEBFF8E828F8312566924245F
:10586300F582E438F583125836702A1256AD702546
:10587300125932E06405701D125932A3E0F8740125
:105883006860057406687007125945740280051232
:1058930059457403F012553D1260B9E4F0EE240843
:1058A300F8E43F1259112431F582E43AF583E0C05C
:1058B300E012591CD0E0125962FAA3E0CA242EF573
:1058C30082E43AF583E0C0E012591CA3D0E01259F8
:1058D30066C81261D038F5831250DA12592C125E61
:1058E30023120EA88A0A8B0BAC0AAD0B850882859E
:1058F3000983E02406125D961218C885088285097B
:1059030083125659120D4C126176F002311BF9883D
:10591300828983E0FAA3E0CA22850882850983127B
:10592300592622126094A3A322125926A3A3228EDE
:10593300828F83A3A3A3A3A3A3A3A31261E8125CEF
:1059430090228E828F83A3A3A3A3A3A3A3A3A3A322
:105953001259572212610CC812412A38F5832212B8
:105963005DA922125DA9F8A3E02202584CC082C0AF
:105973008390033C74B6F0A3740CF090033E74C29E
:10598300F0A3740CF090034074C8F0A3740CF0906F
:10599300034274BCF0A3740CF0025C5074F4120361
:1059A300C4EA2408FCE43BFD1255612424125B067F
:1059B300FE74035EF5091261CF39124E798882892C
:1059C30083F0A3A882A983E50960097402650960CD
:1059D30003025A6B740C5EF508601774086508605F
:1059E30011740465087013740265097005EEA2E46E
:1059F300402C125B212427125B66740C6508701817
:105A0300125B132428125B4BFCA3E0CC2428F58201
:105A1300E43CF583A3125B6C740265097005EEA286
:105A2300E44045125B13242A125B4BFFA3E0CF1221
:105A33005AF1A3125B6C125B17242C125B7B242C90
:105A4300F582E43CF583A3125B6CE50860127408ED
:105A53006508600C740C65086006740465087008BA
:105A6300125B212426125B66125B21125AFA70150F
:105A7300EEA2E14010125B21241EF582E43CF58383
:105A8300E054806008125B33125B0E801A90031699
:105A9300E0C0E0125B33D0E0F0900316125B0E908F
:105AA3000316E004125AEBA3A882A983EEA2E750DF
:105AB30034125B132425125B7B125AFA6027125BA4
:105AC300212434125B66EEA2E1501A8A828B83A3EF
:105AD300A3A3A3A3A3A3A31259162435F582E43ADF
:105AE300F583125B0E02311BF08882898322242AFC
:105AF300F582E43FF583222425F582E43CF583E037
:105B0300540322F582E439F583E022125B60F0222C
:105B1300EA2408FC8C828D83E0FFA3E0CF228A82F3
:105B23008B83A3A3A3A3A3A3A3A3E0FCA3E0CC22FF
:105B33008A828B83A3A3A3A3A3A3A3A3E0FCA3E0D1
